:100000000C94F7080C9428090C9428090C942809DE
:100010000C9428090C9428090C9428090C9428099C
:100020000C9428090C9428090C9428090C9428098C
:100030000C9428090C9428090C9428090C9428097C
:100040000C9428090C9465280C9428090C94280910
:100050000C9428090C9428090C948D240C942924C0
:100060000C9428090C94E50B0C9428090C9428098D
:100070000C9428090C9428090C9428090C9428093C
:100080000C9444340C9428090C9428090C942809E5
:100090000C9428090C9428090C9428090C9428091C
:1000A0000C9428090C9428090C9417340C942809F2
:1000B0000C9428090C9428090C9428090C94EA3310
:1000C0000C9428090C9428090C9428090C942809EC
:1000D0000C9428090C9428090C9428090C942809DC
:1000E0000C9428092B222E221D2221222722652250
:1000F000322236223C22402244224A224E225222DE
:10010000652258225C22602245234A234F2359232B
:100110006323DC236D2375237D23872391239B2376
:10012000AA23B423DC23BE23C823D223E924F62444
:1001300012251F253925462560256225642566255B
:100140006E25084AD73B3BCE016E84BCBFFDC12F54
:100150003D6C74319ABD56833DDA3D00C77F11BEB8
:10016000D9E4BB4C3E916BAAAABE000000803F05BB
:10017000A84CCDB2D44EB93836A9020C50B99186EC
:1001800088083CA6AAAA2ABE000000803F004E4173
:100190004E494E495459494E46CDCCCC3D0AD72301
:1001A0003C17B7D13877CC2B329595E6241FB14F49
:1001B0000A000020410000C84200401C4620BCBE8E
:1001C0004CCA1B0E5AAEC59D7450494420417574EB
:1001D0006F74756E652066696E6973686564212049
:1001E00050757420746865206C617374204B702C9A
:1001F000204B6920616E64204B6420636F6E7374C2
:10020000616E74732066726F6D2061626F76652017
:10021000696E746F20436F6E666967757261746989
:100220006F6E2E6800504944204175746F74756E6E
:1002300065206661696C6564212074696D656F7500
:10024000740020403A006F6B20543A006F6B2042DC
:100250003A00504944204175746F74756E6520668C
:1002600061696C6564212054656D70657261747597
:10027000726520746F6F206869676800204B643A6C
:100280002000204B693A2000204B703A2000204388
:100290006C61737369632050494420002054753A9F
:1002A0002000204B753A2000206D61783A20002014
:1002B0006D696E3A200020643A2000206269617303
:1002C0003A2000557365722053657474696E6773C4
:1002D000207361766564002200556E6B6E6F776ED9
:1002E00020636F6D6D616E643A202200795F6D69E5
:1002F0006E3A2000785F6D696E3A200020526F746C
:100300006174696F6E2041726D0020536D616C6C79
:100310002041726D3A004269672041726D3A0020B7
:100320005A3A0020593A0020436F756E7420583AAB
:100330002000205A3A0020593A00583A00464952C3
:100340004D574152455F4E414D453A4D61726C6982
:100350006E2056312E302E323B20537072696E74EF
:1003600065722F6772626C206D61736875702066AC
:100370006F722067656E36204649524D574152458F
:100380005F55524C3A68747470733A2F2F676974D2
:100390006875622E636F6D2F4D61726C696E466970
:1003A000726D776172652F4D61726C696E2050526B
:1003B0004F544F434F4C5F56455253494F4E3A317D
:1003C0002E30204D414348494E455F545950453ADF
:1003D00064726177626F7420455854525544455297
:1003E0005F434F554E543A3120555549443A3030C9
:1003F0003030303030302D303030302D3030303003
:100400002D303030302D30303030303030303030F2
:1004100030300A0020423A0020453A00543A002089
:10042000573A0020453A00543A0057002042403ADB
:1004300000570020403A00202F003A0020540020AE
:100440002F0020423A00202F006F6B20543A0025E5
:1004500069206D696E2C2025692073656300205A20
:100460003A0020593A0020583A00656E6473746F60
:100470007073206869743A20006563686F3A0020E1
:100480005400094D34204C00736572766F20616E04
:10049000676C65A3A84C2070656E20646F776E2032
:1004A000542070656E207570A3A93A002000094D94
:1004B0003230352058006D6F74696F6E206A657236
:1004C0006B3A002000205900094D3230312058008D
:1004D000416363656C65726174696F6E206F66203D
:1004E0006D6F74696F6E286D6D2F7332293A00201D
:1004F00000205900094D3230332058004D61786991
:100500006D756D2076656C6F63697479206F6620F8
:100510006D6F74696F6E286D6D2F73293A0020001E
:10052000205900094D333637205800436F6F7264ED
:10053000696E617465206D6967726174696F6E20A0
:1005400073657474696E673A002000205900094D84
:1005500039322058004D6F746F72207265736F6C62
:100560007574696F6E3A002000557365722053658B
:100570007474696E6773206C6F6164656400200039
:10058000466163746F72792053657474696E677322
:100590002068617665206265656E20726573746F90
:1005A00072656400200020004E6F762020332032D8
:1005B00030313820002020557064617465207469E2
:1005C0006D653A005635004669726D776172652037
:1005D00076657273696F6E3A00200051513A31307E
:1005E000323832343031323600445245414D2D5488
:1005F0006563686E6F6C6F677920200020536F66AB
:100600007477617265205265736574002057617458
:100610006368646F67205265736574002042726F6F
:10062000776E206F7574205265736574002045786D
:100630007465726E616C20526573657400506F77DB
:100640006572557000200068747470733A2F2F73B0
:10065000686F7036353631343633352E74616F62DB
:10066000616F2E636F6D2F0020005072696E74658C
:10067000722073746F707065642064756520746F88
:10068000206572726F72732E2046697820746865D7
:10069000206572726F7220616E6420757365204DE3
:1006A00039393920746F20726573746172742E2029
:1006B0002854656D70657261747572652069732068
:1006C00072657365742E20536574206974206166A9
:1006D0007465722072657374617274696E67290043
:1006E0004E6F204C696E65204E756D626572207785
:1006F00069746820636865636B73756D2C204C6149
:100700007374204C696E653A20004E6F2043686513
:10071000636B73756D2077697468206C696E6520F2
:100720006E756D6265722C204C617374204C696E1D
:10073000653A2000636865636B73756D206D69733E
:100740006D617463682C204C617374204C696E6514
:100750003A20004C696E65204E756D6265722069A5
:1007600073206E6F74204C617374204C696E652029
:100770004E756D6265722B312C204C617374204C68
:10078000696E653A20004D313130003A2045787469
:100790007275646572207377697463686564206F2D
:1007A00066662E204D415854454D5020747269673D
:1007B00067657265642021003A204578747275641B
:1007C0006572207377697463686564206F66662E4E
:1007D000204D494E54454D502074726967676572CB
:1007E00065642021004572726F723A00000021009A
:1007F000240027002A002D003000330001010000F2
:10080000040107010A0100002200250028002B0036
:100810002E003100340002010000050108010B0127
:10082000000020002300260029002C002F003200A9
:100830000001000003010601090105050505070582
:1008400008080808020202020A0A0808040404044C
:100850000101010101010101030303030303030378
:10086000040707070C0C0C0C0C0C0C0C0202020207
:1008700006060606060606060B0B0B0B0B0B0B0BF0
:1008800001021020200808102040102040800201A2
:100890000201080402010102040810204080804087
:1008A0002010080402018004020180402010080486
:1008B0000201080402010102040810204080010224
:1008C00004081020408000000A0B02090C0D0E08DD
:1008D0000703040100000000000000000000000009
:1008E0000000000000000000000000000000000008
:1008F00000001211100000000000000000000000C5
:1009000000000000000000000000000024F4D430CB
:1009100050C38E20C2A24017828B7011127A910DA3
:10092000816CD90AA861E108C7586607615143067E
:100930001E4B5D05C145A7041A411104093D9803EA
:10094000713931034036DB0265339102D4305402F1
:10095000802E1D02632CEE01752AC501B028A0016E
:10096000102781018F2564012B244B01E0223401E3
:10097000AC211F018D200D01801FFC00841EED00A5
:10098000971DDF00B81CD200E61BC600201BBC0070
:10099000641AB200B219A8000A19A0006A189900D6
:1009A000D117910040178B00B516840031167E00D8
:1009B000B31579003A157300C7146F0058146A0014
:1009C000EE1366008813630025135E00C7125B00F8
:1009D0006C12570015125400C111510070114F00D4
:1009E00021114B00D61049008D10470046104400DD
:1009F00002104200C00F4000800F3E00420F3C003A
:100A0000060F3B00CB0E3800930E37005C0E35000E
:100A1000270E3400F30D3200C10D3100900D30006F
:100A2000600D2E00320D2D00050D2C00D90C2B0071
:100A3000AE0C2900850C29005C0C2700350C270022
:100A40000E0C2600E80B2400C40B2400A00B23008E
:100A50007D0B23005A0B2100390B2100180B2000BD
:100A6000F80A1F00D90A1E00BB0A1E009D0A1D00BD
:100A7000800A1D00630A1C00470A1B002C0A1B0089
:100A8000110A1A00F7091A00DD091900C409190032
:100A9000AB091900920917007B09180063091700B8
:100AA0004C09160036091600200916000A0915001F
:100AB000F5081500E0081400CC081400B80814006C
:100AC000A4081400900813007D0812006B0813009E
:100AD00058081200460812003408110023081100BB
:100AE0001208110001081100F0071000E0071000C3
:100AF000D0071000C0071000B0070F00A1071000BA
:100B000091070E0083070F0074070F0065070E00A2
:100B100057070E0049070E003B070D002E070E0079
:100B200020070D0013070D0006070D00F9060C0045
:100B3000ED060D00E0060C00D4060C00C8060C0003
:100B4000BC060C00B0060C00A4060B0099060C00B5
:100B50008D060B0082060B0077060B006C060B005F
:100B600061060A0057060B004C060A0042060A00FE
:100B700038060A002E060A0024060A001A060A0091
:100B80001006090007060A00FD050900F405090022
:100B9000EB050900E2050900D9050900D0050900A7
:100BA000C7050900BE050900B5050800AD05080028
:100BB000A50509009C050800940508008C0508009F
:100BC000840508007C050800740508006C05070012
:100BD000650508005D050700560508004E0507007D
:100BE00047050700400508003805070031050700E4
:100BF0002A050700230507001C0506001605070047
:100C00000F0507000805060002050700FB040600A3
:100C1000F5040700EE040600E8040600E2040700FD
:100C2000DB040600D5040600CF040600C904060054
:100C3000C3040600BD040600B7040600B1040500A5
:100C4000AC040600A6040600A00405009B040600F0
:100C500095040500900406008A040500850405003B
:100C6000800406007A040500750405007004050080
:100C70006B04050066040500610405005C040500C2
:100C800057040500520405004D0405004804050002
:100C9000430405003E0404003A0405003504050041
:100CA000300404002C04050027040400230405007C
:100CB0001E0404001A0404001604050011040400B4
:100CC0000D040400090405000404040000040400E9
:100CD000FC030400F8030400F4030400F003040020
:100CE000EC030400E8030400E4030400E003040050
:100CF000DC030400D8030400D4030400D003040080
:100D0000CC030400C8030300C503030024F404D982
:100D1000201BC40C5C0E9804C4095F0265077101B6
:100D2000F405F900FB04B30048048700C10369001F
:100D30005803550003034500BE023A008402310007
:100D400053022A002902250004022000E4011C00AD
:100D5000C8011900AF0117009801140084011300A5
:100D6000710110006101100051010E0043010D00DE
:100D700036010B002B010B0020010B0015010900AF
:100D80000C01090003010800FB000800F300080043
:100D9000EB000700E4000600DE000600D8000600B5
:100DA000D2000600CC000500C7000500C200050007
:100DB000BD000400B9000400B5000400B100040047
:100DC000AD000400A9000400A5000300A200030078
:100DD0009F0004009B0003009800030095000200A0
:100DE00093000300900003008D0002008B000300BD
:100DF00088000200860002008400030081000200D7
:100E00007F0002007D0002007B00020079000200EA
:100E100077000100760002007400020072000100F9
:100E2000710002006F0002006D0001006C00020002
:100E30006A0001006900020067000100660001000D
:100E40006500010064000200620001006100010011
:100E5000600001005F0002005D0001005C00010015
:100E60005B0001005A000100590001005800010018
:100E70005700010056000100550001005400010018
:100E80005300000053000100520001005100010016
:100E9000500001004F0001004E0000004E00010014
:100EA0004D0001004C0001004B0000004B00010010
:100EB0004A0001004900010048000000480001000C
:100EC0004700010046000000460001004500000008
:100ED0004500010044000100430000004300010000
:100EE00042000000420001004100000041000100FA
:100EF000400001003F0000003F0001003E000000F4
:100F00003E0001003D0000003D0001003C000000EB
:100F10003C0000003C0001003B0000003B000100E1
:100F20003A0000003A0001003900000039000100D9
:100F300038000000380000003800010037000000D1
:100F400037000100360000003600000036000100C6
:100F500035000000350000003500010034000000BD
:100F600034000000340001003300000033000000B2
:100F700033000100320000003200000032000100A6
:100F8000310000003100000031000100300000009D
:100F900030000000300001002F0000002F00000092
:100FA0002F0000002F0001002E0000002E00000086
:100FB0002E0001002D0000002D0000002D0000007B
:100FC0002D0001002C0000002C0000002C0000006F
:100FD0002C0001002B0000002B0000002B00000063
:100FE0002B0001002A0000002A0000002A00000057
:100FF0002A0001002900000029000000290000004B
:10100000290000002900010028000000280000003D
:101010002800000028000000280001002700000030
:101020002700000027000000270000002700010023
:101030002600000026000000260000002600000018
:10104000260001002500000025000000250000000A
:1010500025000000250000002500010024000000FC
:1010600024000000240000002400000024000100EF
:1010700023000000230000002300000023000000E4
:1010800023000000230000002300010022000000D4
:1010900022000000220000002200000022000000C8
:1010A00022000100210000002100000021000000BA
:1010B00021000000210000002100000021000100AB
:1010C00020000000200000002000000020000000A0
:1010D000200000002000000020000000200001008F
:1010E0001F0000001F0000001F0000001F00000084
:1010F0001F0000001F0000001F0001001E00000074
:101100001E0000001E0000001E00000052657365F6
:101110006E643A20006F6B005072696E74657220C5
:1011200068616C7465642E206B696C6C282920637F
:10113000616C6C656421005072696E746572207315
:10114000746F707065642064756520746F206572BB
:10115000726F72732E2046697820746865206572FC
:10116000726F7220616E6420757365204D39393954
:1011700020746F20726573746172742E2028546518
:101180006D70657261747572652069732072657324
:1011900065742E20536574206974206166746572CD
:1011A0002072657374617274696E6729000000FAB9
:1011B000430000FA43000061430000FAC30000FA54
:1011C000C3CDCCCC3D0000B0C1000050C2CDCCCCD2
:1011D0003D00004040000040400000404000007AD8
:1011E0004400007A4466E66043FFFF016A5611241A
:1011F0001FBECFEFD1E2DEBFCDBF00E00CBF14E0D9
:10120000A0E0B2E0E4EDF1EC00E00BBF02C007901B
:101210000D92A436B107D9F72DE0A4E6B4E001C0E1
:101220001D92A039B207E1F718E0C7EFD8E000E05F
:1012300006C021970109802FFE010E94AA60C63FC7
:10124000D10780E00807A9F70E94023A0C94E860F1
:101250000C940000FC01CB01BA012491222341F03F
:101260003091C00035FFFCCF2093C6003196F5CFFA
:101270004AE00C948B13EF92FF921F93CF93DF936E
:101280007C01C62FD72F142F160FF7018081918173
:101290000E943B5D8993F701808191810196918342
:1012A00080831C13F2CFDF91CF911F91FF90EF90BD
:1012B0000895682F880F770B2091CA063091CB06CE
:1012C00040E6429FC001439F900D112481529B4FE5
:1012D0000E94C6609C0190937D0680937C0681E00D
:1012E000232B09F480E0089580917C0690917D067F
:1012F00060E070E001960C9442574F925F926F92BB
:101300007F928F929F92AF92BF92CF92DF92EF9295
:10131000FF920F931F93CF93DF9380E6F82EC4E0E4
:10132000D0E00AE616E09AE0E92EDD24D39440915D
:10133000420D5091430D8091440D9091450D9A01BD
:10134000281B390B2F773327232B09F41CC220913C
:101350001F0C3091200C243031050CF014C24817BA
:10136000590761F0FC01EE53F34F208101968F770E
:1013700099279093450D8093440D02C02FEF3FEFC6
:10138000822F2093FF062091FC063091FD068A30C3
:1013900061F08D3051F08A3321F49091FE0699234B
:1013A00021F02F3531050CF478C12115310519F4E0
:1013B0001092FE06E8C18091FA069091FB06F89E15
:1013C0005001F99EB00C11242A0D3B1DF901E15288
:1013D000FB4F10822091FE0621115AC11092FE0689
:1013E000FC01EA50F94F1082C50181529B4F4C011C
:1013F0006EE470E00E94C660009709F49DC090936F
:101400007D0680937C06881999098A0D9B1D4AE008
:1014100050E060E070E080529B4F0E94A8586093BB
:10142000F2067093F3068093F4069093F50680908D
:101430005F0690906006A0906106B090620624015D
:101440003501EFEF4E1A5E0A6E0A7E0AA090FA0688
:10145000B090FB06641575058605970509F43CC137
:10146000FA9CC001FB9C900D112466E877E0815244
:101470009B4F0E94F059892B09F02EC1E5EEF7E051
:101480008491882341F09091C00095FFFCCF809318
:10149000C6003196F5CFE3E5F7E08491882341F06B
:1014A0009091C00095FFFCCF8093C6003196F5CF98
:1014B00060915F067091600680916106909162066E
:1014C0000E9400148091C00085FFFCCF2FC0309394
:1014D0007D0620937C06C9018A199B09880D991DF8
:1014E00060E070E080529B4F0E9442570E94025F72
:1014F0002C2D30E02617370709F456C0E5EEF7E04B
:101500008491811107C1E4E3F7E0849181110AC15C
:1015100060915F067091600680916106909162060D
:101520000E9400148091C00085FFFCCF8AE0809368
:10153000C6000E94D53933C06AE270E0C4010E943F
:10154000C660892B09F440C0E5EEF7E0849188235A
:1015500041F09091C00095FFFCCF8093C60031967A
:10156000F5CFE0EEF6E08491882341F09091C00041
:1015700095FFFCCF8093C6003196F5CF60915F0652
:101580007091600680916106909162060E9400143D
:101590008091C00085FFFCCF8AE08093C600109246
:1015A000FD061092FC06EFC08091F2069091F306C2
:1015B000A091F406B091F50680935F0690936006C3
:1015C000A0936106B09362068091FA069091FB06A3
:1015D000F89E5001F99EB00C1124C50181529B4F19
:1015E0004C0167E470E00E94C660009761F190933F
:1015F0007D0680937C06881999098A0D9B1D60E001
:1016000070E080529B4F0E9442570E94025F6430FC
:101610007105C8F48091BA068823A9F0F801849175
:10162000EAE6F6E0882349F09091C00095FFFCCFF0
:101630008093C60031968491F5CF8091C00085FFDC
:10164000FCCFE092C600A090FA06B090FB06FA9C90
:10165000C001FB9C900D112467ED73E081529B4FFC
:101660000E94D160892B11F40E94E136C5010196D8
:10167000BE010E9497609093FB068093FA068091CA
:101680001F0C9091200C01969093200C80931F0CBE
:101690001092FD061092FC064ACE8B3311F4D092C4
:1016A000FE069091FE06911142CE4091FA065091AD
:1016B000FB06B9016F5F7F4F7093FD066093FC06D8
:1016C000F49ED001F59EB00D11242A0F3B1FD901C5
:1016D000A152BB4F8C932BCEFA9C4001FB9C900CEB
:1016E0001124C40181529B4F5C016AE270E00E94A8
:1016F000C6609C01892BF1F090E0C12CF401E90F48
:10170000F11DE152FB4F80818A3209F4E0CE9F5FE8
:10171000C826F4CF9091C00095FFFCCF8093C600FF
:101720003196EECE9091C00095FFFCCF8093C6001D
:101730003196EBCEE5EEF7E08491882341F090916D
:10174000C00095FFFCCF8093C6003196F5CFEAE04C
:10175000F7E08491882341F09091C00095FFFCCF81
:101760008093C6003196F5CF60915F067091600658
:1017700080916106909162060E9400148091C000E1
:1017800085FFFCCFD3CEDF91CF911F910F91FF90BA
:10179000EF90DF90CF90BF90AF909F908F907F9011
:1017A0006F905F904F900895FC01CB01BA01249196
:1017B000222341F03091C00035FFFCCF2093C600BA
:1017C0003196F5CF42E00C9412141F920F920FB68F
:1017D0000F9211240BB60F922F933F934F936F9359
:1017E0007F938F939F93EF93FF934091C600209137
:1017F000420D3091430DC90101968F779927609171
:10180000440D7091450D8617970741F0F901EE538D
:10181000F34F40839093430D8093420DFF91EF91DE
:101820009F918F917F916F914F913F912F910F9049
:101830000BBE0F900FBE0F901F9018952F923F92E6
:101840004F925F926F927F928F929F92AF92BF92D0
:10185000CF92DF92EF92FF920F931F93CF93DF937C
:10186000CDB7DEB7E0970FB6F894DEBF0FBECDBFA1
:1018700080E1E0EEF2E0DE01919601900D928A9512
:10188000E1F780E1E0EFF2E0DE01519601900D9288
:101890008A95E1F780E1E0E0F3E0DE011196019046
:1018A0000D928A95E1F7DE01919605E61CE0BE01F6
:1018B0006F5E7F4F44E257E0CE0101966C012BE64C
:1018C00036E091E0292E92E0392E7E0191E3E90E77
:1018D000F11C812C912CE0E8AE2EEFE3BE2E4D9052
:1018E0005D906D907D90F80141925192619271925C
:1018F0008F01FB014190519061907190BF01FA01FD
:101900004192519261927192AF01F60141905190D2
:10191000619071906F01F9014192519261927192BF
:101920009F01F10181929192A192B1921F01AE1596
:10193000BF05A9F60E94073080E090E0A0E2B1E484
:101940008093440290934502A0934602B0934702CD
:1019500080E090E0A4EBB2E48093480290934902C7
:10196000A0934A02B0934B0280E090E0AAE7B4E46F
:1019700080931C0790931D07A0931E07B0931F0729
:1019800080E090E0AAEFB4E48093200790932107D1
:10199000A0932207B09323071092340710923507C3
:1019A000109236071092370780E29EE4A0E0B0E084
:1019B0008093670690936806A0936906B0936A06C1
:1019C000109238071092390710923A0710923B078D
:1019D0008AE999E9A9E9BFE3809308079093090789
:1019E000A0930A07B0930B078DEC9CECACECBEE324
:1019F0008093040790930507A0930607B093070709
:101A0000C12CD12C80E4E82EFE2CC0920007D0928D
:101A10000107E0920207F092030710929A061092D3
:101A20009B0610929C0610929D06109296061092AC
:101A300097061092980610929906109292061092AC
:101A40009306109294061092950680E090E0A8E428
:101A5000B3E48093110290931202A0931302B09307
:101A6000140280930D0290930E02A0930F02B09384
:101A700010021092DB041092DC041092DD0410922C
:101A8000DE041092D7041092D8041092D904109258
:101A9000DA0480E090E0A1E0B3EC8093150290932B
:101AA0001602A0931702B093180280E090E0A0E025
:101AB000B3E48093190290931A02A0931B02B0938F
:101AC0001C0210921D0210921E0210921F02109210
:101AD000200283E393E3AFE2B2EC80934C02909355
:101AE0004D02A0934E02B0934F028AE999E9A1EB0F
:101AF000B2E48093500290935102A0935202B093AB
:101B000053021092540210925502109256021092F3
:101B1000570280E090E0A4ECB1E480933902909306
:101B20003A02A0933B02B0933C0280EC9AEDA6E609
:101B3000BEE38093350290933602A0933702B093B0
:101B400038028AEE94E5A7E2B4E4809331029093E0
:101B50003202A0933302B09334020E941B2880E02B
:101B600090E0A0E8BFE380932D0290932E02A09313
:101B70002F02B093300210927B06C0923F02D092A7
:101B80004002E0924102F09242020E94D835E4EA1B
:101B9000F5E08491882341F09091C00095FFFCCF3F
:101BA0008093C6003196F5CF8091C00085FFFCCFB1
:101BB0008AE08093C600E0E8F5E08491882341F054
:101BC0009091C00095FFFCCF8093C6003196F5CF71
:101BD0008091C00085FFFCCF8AE08093C600E0962C
:101BE0000FB6F894DEBF0FBECDBFDF91CF911F912E
:101BF0000F91FF90EF90DF90CF90BF90AF909F90AC
:101C00008F907F906F905F904F903F902F900895AE
:101C1000E7E6F5E08491882341F09091C00095FFBC
:101C2000FCCF8093C6003196F5CF8091C00085FF30
:101C3000FCCF8AE08093C600E5E5F5E08491882337
:101C400041F09091C00095FFFCCF8093C600319683
:101C5000F5CF8091C00085FFFCCF8AE08093C6005D
:101C60004091650C5091660C6091670C7091680C06
:101C70008EE495E099DD4091690C50916A0C609179
:101C80006B0C70916C0C8BE495E08EDD8091C00044
:101C900085FFFCCF8AE08093C600E9E4F5E08491FB
:101CA000882341F09091C00095FFFCCF8093C6003F
:101CB0003196F5CF8091C00085FFFCCF8AE08093FC
:101CC000C600EBE2F5E08491882341F09091C000DA
:101CD00095FFFCCF8093C6003196F5CF8091C00070
:101CE00085FFFCCF8AE08093C60040911502509199
:101CF0001602609117027091180283E295E054DD9C
:101D00004091190250911A0260911B0270911C02BD
:101D100080E295E049DD8091C00085FFFCCF8AE03C
:101D20008093C600EEE1F5E08491882341F0909124
:101D3000C00095FFFCCF8093C6003196F5CF80910F
:101D4000C00085FFFCCF8AE08093C600ECEFF4E092
:101D50008491882341F09091C00095FFFCCF80933F
:101D6000C6003196F5CF8091C00085FFFCCF8AE098
:101D70008093C60040912407509125076091260763
:101D80007091270784EF94E00FDD40912807509170
:101D9000290760912A0770912B0781EF94E004DDF9
:101DA0008091C00085FFFCCF8AE08093C600EFEEF3
:101DB000F4E08491882341F09091C00095FFFCCF1E
:101DC0008093C6003196F5CF8091C00085FFFCCF8F
:101DD0008AE08093C600E0EDF4E08491882341F02E
:101DE0009091C00095FFFCCF8093C6003196F5CF4F
:101DF0008091C00085FFFCCF8AE08093C6004091AF
:101E00006B0650916C0660916D0670916E0688ECC1
:101E100094E020DA40916F0650917006609171064F
:101E20007091720685EC94E015DA8091C00085FF10
:101E3000FCCF8AE08093C600E3ECF4E08491882331
:101E400041F09091C00095FFFCCF8093C600319681
:101E5000F5CF8091C00085FFFCCF8AE08093C6005B
:101E6000E6EBF4E08491882341F09091C00095FF67
:101E7000FCCF8093C6003196F5CF8091C00085FFDE
:101E8000FCCF8AE08093C600409108075091090773
:101E900060910A0770910B078EEA94E085DC8091CF
:101EA000C00085FFFCCF8AE08093C600ECEAF4E036
:101EB0008491882341F09091C00095FFFCCF8093DE
:101EC000C6003196F5CF8091C00085FFFCCF8AE037
:101ED0008093C600E8E8F4E08491882341F0909173
:101EE000C00095FFFCCF8093C6003196F5CF80915E
:101EF000C00085FFFCCF8AE08093C6004091440279
:101F000050914502609146027091470282E894E048
:101F10004BDC409148025091490260914A02709115
:101F20004B028FE794E040DC8091C00085FFFCCF3E
:101F30008AE08093C6000895CF93DF93CDB7DEB7D4
:101F400068970FB6F894DEBF0FBECDBF84E690E071
:101F5000988F8F8B86E591E3A3E3B0E089839A8322
:101F6000AB83BC8344E0BE016B5F7F4FCE014796DD
:101F700082D943E050E0BE016B5F7F4FCE010196F6
:101F80000E94DA60892B09F0FCC040E165E67CE044
:101F9000CE01479670D940E164E277E0CE014796E2
:101FA0006AD940E16BE676E0CE01479664D90E949B
:101FB000073044E06CE177E0CE0147965CD944E01D
:101FC00060E277E0CE01479656D944E064E377E0DB
:101FD000CE01479650D944E068E377E0CE014796BA
:101FE0004AD944E067E676E0CE01479644D948E016
:101FF00064E472E0CE0147963ED944E068E077E0C1
:10200000CE01479638D944E064E077E0CE014796A8
:1020100032D944E060E077E0CE0147962CD94CE01D
:1020200062E976E0CE01479626D944E061E172E0AC
:10203000CE01479620D944E06DE072E0CE0147968C
:102040001AD944E06BED74E0CE01479614D944E010
:1020500067ED74E0CE0147960ED94CE065E172E081
:10206000CE01479608D94CE06CE472E0CE01479669
:1020700002D942E0BE016B5E7F4FCE014796FBD88E
:1020800042E0BE016D5E7F4FCE014796F4D842E03C
:10209000BE016F5E7F4FCE014796EDD842E0BE0194
:1020A000615F7F4FCE014796E6D842E0BE01635F95
:1020B0007F4FCE014796DFD842E0BE01655F7F4F7C
:1020C000CE014796D8D844E063ED74E0CE01479640
:1020D000D2D844E069E372E0CE014796CCD844E020
:1020E00065E372E0CE014796C6D844E061E372E052
:1020F000CE014796C0D842E0BE01675F7F4FCE0158
:102100004796B9D84CE061E072E0CE014796B3D86B
:1021100041E06BE776E0CE014796ADD844E06FE34F
:1021200072E0CE014796A7D80E94D8350E941B289E
:10213000EEE7F5E08491882341F09091C00095FF8F
:10214000FCCF8093C6003196F5CF8091C00085FF0B
:10215000FCCF8AE08093C600E9E6F5E0849188230D
:1021600041F09091C00095FFFCCF8093C60031965E
:10217000F5CF8091C00085FFFCCF8AE08093C60038
:1021800001C05CDB45DD68960FB6F894DEBF0FBE7C
:10219000CDBFDF91CF910895269A2E9882E080934B
:1021A000C0001092C50080E18093C4008091C100FE
:1021B00080618093C1008091C10088608093C100DC
:1021C0008091C10080688093C100E8E6F6E08491C8
:1021D000882341F09091C00095FFFCCF8093C6000A
:1021E0003196F5CF8091C00085FFFCCF8AE08093C7
:1021F000C600E7E4F6E08491882341F09091C000A6
:1022000095FFFCCF8093C6003196F5CF8091C0003A
:1022100085FFFCCF8AE08093C600E5E4F6E0849178
:10222000882341F09091C00095FFFCCF8093C600B9
:102230003196F5CF8091C00085FFFCCF8AE0809376
:10224000C60084B780FF14C0EDE3F6E094919923B3
:1022500041F02091C00025FFFCCF9093C60031963D
:10226000F5CF9091C00095FFFCCF9AE09093C60007
:1022700081FF14C0EDE2F6E09491992341F02091A2
:10228000C00025FFFCCF9093C6003196F5CF90910A
:10229000C00095FFFCCF9AE09093C60082FF14C067
:1022A000ECE1F6E09491992341F02091C00025FFE4
:1022B000FCCF9093C6003196F5CF9091C00095FF6A
:1022C000FCCF9AE09093C60083FF14C0ECE0F6E0E8
:1022D0009491992341F02091C00025FFFCCF909369
:1022E000C6003196F5CF9091C00095FFFCCF9AE0E3
:1022F0009093C60085FF14C0ECEFF5E0849188232D
:1023000041F09091C00095FFFCCF8093C6003196BC
:10231000F5CF8091C00085FFFCCF8AE08093C60096
:1023200014BEE9EEF5E08491882341F09091C0005D
:1023300095FFFCCF8093C6003196F5CFEBEDF5E02D
:102340008491882341F09091C00095FFFCCF809349
:10235000C6003196F5CF8091C00085FFFCCF8AE0A2
:102360008093C600E9EDF5E08491882341F09091D7
:10237000C00095FFFCCF8093C6003196F5CF8091C9
:10238000C00085FFFCCF8AE08093C600E7ECF5E053
:102390008491882341F09091C00095FFFCCF8093F9
:1023A000C6003196F5CFE4ECF5E08491882341F046
:1023B0009091C00095FFFCCF8093C6003196F5CF79
:1023C000E5EBF5E08491882341F09091C00095FF02
:1023D000FCCF8093C6003196F5CFE8EAF5E0849112
:1023E000882341F09091C00095FFFCCF8093C600F8
:1023F0003196F5CFE6EAF5E08491882341F090919B
:10240000C00095FFFCCF8093C6003196F5CF809138
:10241000C00085FFFCCF8AE08093C6001092F606CC
:102420001092F7061092F8061092F90685DD1092C8
:10243000850C1092860C1092870C1092880C2091BB
:10244000350230913602409137025091380260E0F7
:1024500070E08FE793E40E949A5E6093810C709322
:10246000820C8093830C9093840C1092EE06109251
:10247000EF061092F0061092F1062091250230919D
:102480002602409127025091280260E070E08FE719
:1024900093E40E949A5E60937D0C70937E0C80930F
:1024A0007F0C9093800C249A80910101806280932C
:1024B00001018091010180648093010187ED809387
:1024C0007A0010927E0010927D0080917D008062E3
:1024D00080937D0080917D00806880937D00809155
:1024E0007D00806480937D0080E888BD80916E00CF
:1024F000846080936E006AEF70E080E090E00E945C
:10250000E5231092160C1092150C80E1E5E5FCE035
:10251000DF011D928A95E9F71092410C1092420C4E
:102520001092430C1092440C1092450C1092460CE1
:102530001092470C1092480C1092490C10924A0CC1
:1025400010924B0C10924C0C10924D0C10924E0CA1
:1025500010924F0C1092500C1092510C1092520C81
:102560001092530C1092540C819A879A80910A0110
:10257000826080930A010E9A3B9A579A5F9A829AD8
:102580008A9A809107018160809307019FB7F89430
:10259000809108018160809308019FBF0A9A129A76
:1025A0003F9A479A6D98759A809104018D7F809328
:1025B00004019FB7F8948091050182608093050122
:1025C0009FBF53985B9A6C98749A809104018E7F98
:1025D000809304019FB7F8948091050181608093F6
:1025E00005019FBF52985A9A809A88985F9A1092D4
:1025F000120C869A8E988A9A1092130C80910A0176
:10260000886080930A019FB7F89480910B01877FBF
:1026100080930B019FBF9FB7F89480910801816060
:10262000809308019FBF1092140C0C9A1498129A70
:10263000399A4198809181008F7E809381008091AA
:102640008100886080938100809180008D7F8093DD
:102650008000809180008E7F809380008091800038
:102660008F7380938000809180008F7C80938000A6
:1026700080918100887F82608093810080E090E477
:1026800090938900809388001092850010928400B6
:1026900080916F00826080936F0081E080930002E0
:1026A00078946BE070E089E896E00E94743366E00D
:1026B00070E08CE896E00E94743365E070E08FE88B
:1026C00096E00E947433BFEF23ED80E3B1502040C9
:1026D0008040E1F700C000000895EF92FF921F9341
:1026E000CF93DF937C01C62FD72F142F160F69913C
:1026F000F701808191810E94435DF7018081918182
:102700000196918380831C13F2CFDF91CF911F91AB
:10271000FF90EF9008954F925F926F927F928F9209
:102720009F92AF92BF92EF92FF920F931F93CF931E
:10273000DF93CDB7DEB7A0970FB6F894DEBF0FBE1C
:10274000CDBF611571058105910541F48091C000EF
:1027500085FFFCCF80E38093C6003DC09E012F5FC4
:102760003F4F7901812C912C54018901442E512C29
:10277000612C712C3FEF831A930AA30AB30AA301B9
:1027800092010E94605DF70161937F01B901CA0166
:10279000611571058105910569F7A40120E030E01C
:1027A000F1E08F1A9108A108B108F401E21BF30BC4
:1027B000E00FF11F80818A3010F4805D01C0895CD8
:1027C0009091C00095FFFCCF8093C6002F5F3F4FD4
:1027D0002417350751F7A0960FB6F894DEBF0FBE49
:1027E000CDBFDF91CF911F910F91FF90EF90BF90E0
:1027F000AF909F908F907F906F905F904F900895D3
:1028000097FF0EC02091C00025FFFCCF2DE2209342
:10281000C60090958095709561957F4F8F4F9F4F23
:102820004AE079CF8F929F92AF92BF92CF92DF9280
:10283000EF92FF92CF93DF936B017C01C42F20E0D6
:1028400030E0A9010E94395A87FF0BC08091C00077
:1028500085FFFCCF8DE28093C600F7FAF094F7F87D
:10286000F094D0E060E070E080E09FE3DC1741F09E
:1028700020E030E040E251E40E949A5EDF5FF6CF54
:102880009B01AC01C701B6010E94BE5D6B017C01DA
:102890000E94075F4B015C010E943D5A9B01AC0105
:1028A000C701B6010E94BD5D6B017C014AE0C50114
:1028B000B40131DFCC2361F0E0EBF3E081918823B8
:1028C00039F09091C00095FFFCCF8093C600F6CF01
:1028D000CC2309F120E030E040E251E4C701B60129
:1028E0000E948E564B015C010E94025F6B01770FC4
:1028F000EE08FF08C701B60183DFC701B6010E94D9
:102900003F5A9B01AC01C501B4010E94BD5D6B0142
:102910007C01C150DDCFDF91CF91FF90EF90DF9030
:10292000CF90BF90AF909F908F900895BC0180E0B2
:1029300090E04AE0F0DE8091C00085FFFCCF8DE0A2
:102940008093C6008091C00085FFFCCF8AE0809311
:10295000C6000895CF92DF92EF92FF920F931F93DC
:10296000CF93DF936B017A0105E61CE0F80120812B
:10297000318142815381FC01608171818281938127
:102980000E948E560E94F45FC5E5DCE0688379837F
:102990008A839B83F8012481358146815781F60122
:1029A00060817181828193810E948E560E94F45FC2
:1029B0006C837D838E839F83F801208531854285DA
:1029C0005385F70160817181828193810E948E56C7
:1029D0000E94F45F688779878A879B87F80124853E
:1029E00035854685578560913D0C70913E0C8091F0
:1029F0003F0C9091400C0E948E560E94F45F6C87B1
:102A00007D878E879F878FB7F894488159816A8127
:102A10007B81E1E2FCE040835183628373834C81DC
:102A20005D816E817F81448355836683778348858A
:102A300059856A857B8540875187628773874C8576
:102A40005D856E857F8544875587668777878FBFCD
:102A50001092510C1092520C1092530C1092540C74
:102A6000E1E4FCE01082118212821382148215824A
:102A70001682178210861186128613861486158692
:102A800016861786DF91CF911F910F91FF90EF90DF
:102A9000DF90CF9008954F925F926F927F928F92C6
:102AA0009F92AF92BF92CF92DF92EF92FF920F93DD
:102AB0001F93CF93DF9380911F0C9091200C03976D
:102AC00014F40E947D090E941D24C0901B0CD0901C
:102AD0001C0CE0901D0CF0901E0C0091170C109136
:102AE000180C2091190C30911A0CDC01CB018C19B7
:102AF0009D09AE09BF09081719072A073B0730F4DB
:102B0000012B022B032B11F00E94E1368090700202
:102B100090907102A0907202B0907302811491049F
:102B2000A104B104A1F00E941D24DC01CB018C1989
:102B30009D09AE09BF0988169906AA06BB0638F496
:102B40009091160C8091150C981709F416C160919C
:102B5000100C9091150C8091160C981781F08091B3
:102B6000150C9DE4899FF0011124E857F84F60810E
:102B70009091160C891719F08F5F8F70F9CF70E064
:102B800089E00E941E2380913F07882309F407C132
:102B9000C0906C02D0906D02E0906E02F0906F02D7
:102BA00060913D0770913E07072E000C880B990B32
:102BB0000E943F5A20E030E040E050E40E94BE5DB9
:102BC0009601A7010E94395A87FDE9C0C091150CF2
:102BD000912CA12CB12CD0E08DE4882E8091160C84
:102BE000C81709F456C08C2F90E0889EF001899E8A
:102BF000F00D1124E05CF84F4081518162817381B6
:102C0000452B462B472B81F4448155816681778182
:102C1000452B462B472B41F44085518562857385B2
:102C2000452B462B472B91F1889E8001899E100DE4
:102C30001124005C184FF801648575858685978599
:102C40000E943F5A2B013C01F801608971898289F9
:102C500093890E943D5A9B01AC01C301B2010E94BD
:102C60009A5EF80122A133A144A155A10E948E567B
:102C70003B018C01292D3A2D4B2D5D2F0E94E95FE0
:102C8000181624F4962CA72CB02ED12FCF5FCF701E
:102C9000A5CF209168023091690240916A0250915B
:102CA0006B02692D7A2D8B2D9D2F0E948E569B01D4
:102CB000AC01B601C7010E94BE5D8B01D82FC92FA0
:102CC0009601A7010E94395A87FF03C08601DE2DB5
:102CD000CF2DC0906402D0906502E0906602F09023
:102CE00067029601A701B8018D2F9C2F0E94E95F12
:102CF00018161CF48601DE2DCF2DC090790CD090D3
:102D00007A0CE0907B0CF0907C0C98014D2F5C2F9E
:102D1000C701B6010E94E95F1816D4F420E037ED30
:102D200043EA5CE3B8018D2F9C2F0E948E564B0125
:102D30005C0128E431EE4AE75FE3C701B6010E9477
:102D40008E56A50194010E94BE5D8B01D82FC92F1C
:102D5000C801AD2FBC2F8093790C90937A0CA0936F
:102D60007B0CB0937C0CB8018D2F9C2F0E94025FCE
:102D700070933E0760933D0712C05F9A1092120C49
:102D80008A9A1092130C9FB7F89480910801816081
:102D9000809308019FBF1092140C129AD8CEDF9135
:102DA000CF911F910F91FF90EF90DF90CF90BF9048
:102DB000AF909F908F907F906F905F904F9008950D
:102DC0002F923F924F925F926F927F928F929F923B
:102DD000AF92BF92CF92DF92EF92FF920F931F9329
:102DE000CF93DF93CDB7DEB7C257D1090FB6F894B2
:102DF000DEBF0FBECDBF3C014B015A016901EBA202
:102E0000FBA60CA71DA78091160C8F5F6B968FAF4A
:102E10006B97803119F46B961FAE6B976B962FAD45
:102E20006B97022F220F110B8091150C90E08017E9
:102E3000910721F40E9468262EDEF6CF2091650CC2
:102E40003091660C4091670C5091680CD3016D91E4
:102E50007D918D919C910E948E560E94F45F6F9699
:102E60006CAF7DAF8EAF9FAF6F972091690C3091A3
:102E70006A0C40916B0C50916C0CF4016081718173
:102E8000828193810E948E560E94F45FA3966CAF5C
:102E90007DAF8EAF9FAFA39740906D0C50906E0C9E
:102EA00060906F0C7090700CD5012D913D914D91FB
:102EB0005C91C301B2010E948E560E94F45FA796F6
:102EC0006CAF7DAF8EAF9FAFA7972091710C309103
:102ED000720C4091730C5091740CF60160817181F9
:102EE000828193810E948E560E94F45FAB966CAFF4
:102EF0007DAF8EAF9FAFAB97E091160C2E2E312C8D
:102F00002DE4E29FF0011124E457F84F10828091E4
:102F1000550C9091560CA091570CB091580C8AAB5F
:102F20009BABACABBDAB6F968CAC9DACAEACBFAC51
:102F30006F97881A990AAA0ABB0AB7FE08C0B0940C
:102F4000A09490948094811C911CA11CB11C8DE4D0
:102F5000829DF001839DF00D1124E05CF84F80828A
:102F60009182A282B3822091590C30915A0C4091E7
:102F70005B0C50915C0C2EAB3FAB48AF59AFA396A6
:102F8000CCACDDACEEACFFACA397C21AD30AE40A1A
:102F9000F50AF7FE08C0F094E094D094C094C11CE8
:102FA000D11CE11CF11C8DE4829DF001839DF00D8C
:102FB0001124E05CF84FC482D582E682F7828091CA
:102FC0005D0C90915E0CA0915F0CB091600C8EA78F
:102FD0009FA7A8ABB9ABA7966CAD7DAD8EAD9FADED
:102FE000A7972EA53FA548A959A9621B730B840B6F
:102FF000950B97FF07C090958095709561957F4FD1
:103000008F4F9F4F0E943F5A6FA378A789A79AA717
:1030100020E030E044E353E4C301B2010E948E5645
:103020006AAF7BAF8CAF9DAF9B01AC016FA178A560
:1030300089A59AA50E94E95F181604F58DE4829D82
:103040008001839D100D1124005C184F20E030E0BA
:1030500044EB53E4C301B2010E948E562FA138A560
:1030600049A55AA50E94BD5D0E94025FD80118962D
:103070006D937D938D939C931B9713C08DE4829DDC
:103080008001839D100D1124005C184F6FA178A55D
:1030900089A59AA50E94025FF801608771878287DF
:1030A00093874090610C5090620C6090630C70901C
:1030B000640C10913C07AB966CAD7DAD8EAD9FADB1
:1030C000AB97641975098609970997FF07C0909512
:1030D0008095709561957F4F8F4F9F4F0E943F5A0B
:1030E00024E0129FF0011124E05AFD4F208131812C
:1030F000428153810E948E560E94025F9B01AC0167
:10310000A0915E02B0915F020E94A85D24E630E0CB
:1031100040E050E00E94825DFA018DE4829DD00182
:10312000839DB00D1124A05CB84F1C962C931C9766
:103130001D963C931D971E964C931E971F96FC93CD
:103140001F9718964D915D916D917C911B97C901C8
:10315000DF0184179507A607B70714F4DB01CA013E
:10316000B501A4018C159D05AE05BF0544F0881678
:103170009906AA06BB0654F4AC01BD0107C08C1425
:103180009D04AE04BF0414F4B701A6018DE4829D32
:10319000F001839DF00D1124E05CF84F408B518BC2
:1031A000628B738B463051056105710514F40C94E4
:1031B000F621DF01A85BBF4F4091100C5091110C1C
:1031C000052E000C660B770B4D935D936D937C93EE
:1031D00013976F968CAD9DADAEADBFAD6F972AA91D
:1031E0003BA94CA95DA982179307A407B50714F062
:1031F00010A202C081E080A3A3968CAD9DADAEADC0
:10320000BFADA3972EA93FA948AD59AD821793072B
:10321000A407B5075CF48DE4829DF001839DF00D59
:103220001124E05CF84F80A1826080A36FA178A593
:1032300089A59AA50E94025F97FF07C09095809587
:10324000709561957F4F8F4F9F4F0E943F5A2AADD7
:103250003BAD4CAD5DAD0E94E95F181684F4A796B6
:103260008CAD9DADAEADBFADA7972EA53FA548A92E
:1032700059A9281739074A075B07DCF40FC0A7963E
:103280008CAD9DADAEADBFADA7972EA53FA548A90E
:1032900059A982179307A407B5075CF48DE4829DB2
:1032A000F001839DF00D1124E05CF84F80A1846053
:1032B00080A3AB968CAD9DADAEADBFADAB97841585
:1032C0009505A605B7055CF48DE4829DF001839D0C
:1032D000F00D1124E05CF84F80A1886080A38DE49C
:1032E000829DF001839DF00D1124E05CF84F11A345
:1032F00089288A288B2809F05F988DE4829DF00147
:10330000839DF00D1124E05CF84F84819581A681A6
:10331000B781892B8A2B8B2B09F08A988DE4829DAB
:10332000F001839DF00D1124E05CF84F80859185BC
:10333000A285B385892B8A2B8B2B41F09FB7F894FC
:10334000809108018E7F809308019FBF8DE4829D4C
:10335000F001839DF00D1124E05CF84F8485958584
:10336000A685B785892B8A2B8B2B69F18091760CEA
:10337000882319F081508093760C8091770C8823F4
:1033800019F081508093770C8091780C882319F084
:1033900081508093780C80913C07813061F030F04F
:1033A000823089F480E28093780C08C0129880E221
:1033B0008093760C08C080E28093770C8091760C25
:1033C000811101C0129A8DE4829DF001839DF00D60
:1033D0001124E05CF84F2485358546855785229673
:1033E0002CAF3DAF4EAF5FAF2297232B242B252B65
:1033F00049F4E0903807F090390700913A071091AE
:103400003B0708C0E0903407F0903507009136077D
:10341000109137079701A8016BA17BA58CA59DA5ED
:103420000E94395A87FF04C0EBA2FBA60CA71DA778
:103430008091550C9091560CA091570CB091580C5E
:103440006F962CAD3DAD4EAD5FAD6F97281B390B20
:103450004A0B5B0BCA01B9010E943F5A2091650CCF
:103460003091660C4091670C5091680C0E949A5EF6
:103470006FA378A789A79AA7698B7A8B8B8B9C8B74
:103480008091590C90915A0CA0915B0CB0915C0CFE
:10349000A3962CAD3DAD4EAD5FADA397281B390B68
:1034A0004A0B5B0BCA01B9010E943F5A2091690C7B
:1034B00030916A0C40916B0C50916C0C0E949A5E9A
:1034C0004B015C016D8B7E8B8F8B988F8DE4829D81
:1034D0008001839D100D1124005C184FD8011896AF
:1034E0008D919D910D90BC91A02D8AAB9BABACAB07
:1034F000BDABBC01CD010E943F5A26966CAF7DAF9B
:103500008EAF9FAF269720916D0C30916E0C40913D
:103510006F0C5091700C0E949A5E6B017C01698F58
:103520007A8F8B8F9C8F8091610C9091620CA0910F
:10353000630CB091640CAB962CAD3DAD4EAD5FAD60
:10354000AB97281B390B4A0B5B0BCA01B9010E94D0
:103550003F5A2091710C3091720C4091730C509134
:10356000740C0E949A5EE0913C0734E0E39FF00106
:103570001124E05AFD4F20813181428153810E9404
:103580008E562B013C0160915E0270915F02072E06
:10359000000C880B990B0E943F5A9B01AC01C301A0
:1035A000B2010E948E5620E030E048EC52E40E94C6
:1035B0009A5E6D8F7E8F8F8F98A3D8012D913D914C
:1035C0004D915C9113972EAB3FAB48AF59AF26306E
:1035D000310541055105F4F414964D905D906D90C0
:1035E0007C901797B6E04B1651046104710494F473
:1035F0002AA93BA94CA95DA92630310541055105F1
:103600004CF4DC01CB01BF77F80186A797A7A0ABEC
:10361000B1AB2CC06FA178A589A59AA50E948B5645
:103620002B013C01C501B4010E948B569B01AC01EA
:10363000C301B2010E94BE5D4B015C01C701B6012E
:103640000E948B569B01AC01C501B4010E94BE5D76
:103650000E9432602DE4229DF001239DF00D112483
:10366000E05CF84F66A777A780AB91AB8DE4829DB5
:103670008001839D100D1124005C184FD8019E9687
:103680008D909D90AD90BC90D197A501940160E084
:1036900070E080E89FE30E949A5E9B01AC016BA101
:1036A0007BA58CA59DA50E948E562B013C01809187
:1036B000160C2091150C90E0821B9109FC01EF7013
:1036C000FF27E196FFAFEEAFE197A3019201C5019D
:1036D000B4010E948E562A966CAF7DAF8EAF9FAF1D
:1036E0002A97D80192966D937D938D939C9395978D
:1036F00050966D917D918D919C9153970E943D5A6A
:103700006BA37CA38DA39EA3A30192010E948E565E
:103710000E94845E0E94075F2E966CAF7DAF8EAFD5
:103720009FAF2E97F80160AF71AF82AF93AF9E014C
:103730002F5E3F4F3BAF2AAFAE014F5F5F4F5FA79A
:103740004EA784E297E068969FAF8EAF6897DE0140
:103750009196BAA3A9A364965FAF4EAF64971BA6D8
:103760001CA6B0E8BDA7EFE3EFA3AAADBBAD6D917A
:103770007D918D919D91BBAFAAAFA30192010E9453
:103780008E566496EEADFFAD64976193719381930D
:1037900091936496FFAFEEAF64976B017C01E89460
:1037A000F7F86896AEADBFAD68972D913D914D91FC
:1037B0005D916896BFAFAEAF689762962CAF3DAF94
:1037C0004EAF5FAF6297C701B6010E94E95F18165E
:1037D000D4F4A701960162966CAD7DAD8EAD9FAD20
:1037E00062970E949A5E7B018C019B01AC016BA5E4
:1037F0007CA58DA59FA10E94395A87FD04C0EBA628
:10380000FCA60DA71FA3EAADFBAD29A13AA1E217C3
:10381000F30709F0AACF20E030E040E85FE36BA5B2
:103820007CA58DA59FA10E94395A87FF4AC08E01B1
:103830000F5E1F4F2BA53CA54DA55FA1AEA5BFA553
:103840006D917D918D919C910E948E56EEA5FFA564
:103850006193719381939193FFA7EEA7E017F1070E
:1038600049F78DE4829D8001839D100D1124005C39
:10387000184F2BA53CA54DA55FA12A966CAD7DAD3B
:103880008EAD9FAD2A970E948E56D80192966D9369
:103890007D938D939C9395972E966CAD7DAD8EAD5B
:1038A0009FAD2E970E943D5A2BA53CA54DA55FA12B
:1038B0000E948E560E94075FF80160AF71AF82AF21
:1038C00093AFA50194016BA17CA18DA19EA10E9443
:1038D0009A5E6B017C012EA93FA948AD59AD232BFF
:1038E000242B252B91F58DE4829D8001839D100D65
:1038F0001124005C184FF80184819581A681B7815D
:10390000892B8A2B8B2B09F52AA93BA94CA95DA9E8
:10391000232B242B252BC9F420912007309121073C
:103920004091220750912307C701B6010E948E568D
:103930000E94845E0C5B1F4F0E94075FD8016D934D
:103940007D938D939C93139718C120911C07309100
:103950001D0740911E0750911F07C701B6010E9425
:103960008E560E94845E0E94075F2DE4229D800196
:10397000239D100D11240C57184FF801608371839B
:103980008283938380900C0790900D07A0900E0780
:10399000B0900F070E943D5A2B013C016EA97FA9F0
:1039A00088AD99AD0E943F5A9B01AC01C301B201A1
:1039B0000E948E562BA13CA14DA15EA10E949A5E51
:1039C0002B013C01C501B4010E943D5A9B01AC0191
:1039D000C301B2010E94E95F181634F4D8018D9238
:1039E0009D92AD92BC921397409010075090110792
:1039F00060901207709013072DE4229DC001239D53
:103A0000900D11249C01205C384F89010C5B1F4FE5
:103A1000F8016081718182819381E2962FAFE297F4
:103A2000E3963FAFE3970E943D5A4B015C01E2965B
:103A30002FADE297E3963FADE397D90114966D91D0
:103A40007D918D919C9117970E943F5A9B01AC01EB
:103A5000C501B4010E948E562BA13CA14DA15EA1CF
:103A60000E949A5E4B015C01C301B2010E943D5A63
:103A70009B01AC01C501B4010E94E95F18162CF44A
:103A8000F801408251826282738280901807909080
:103A90001907A0901A07B0901B078DE4829D800142
:103AA000839D100D11240C57184FD8016D917D91F5
:103AB0008D919C910E943D5A2B013C0122966CAD48
:103AC0007DAD8EAD9FAD22970E943F5A9B01AC0108
:103AD000C301B2010E948E562BA13CA14DA15EA153
:103AE0000E949A5E2B013C01C501B4010E943D5A1F
:103AF0009B01AC01C301B2010E94E95F18162CF4CE
:103B0000F80180829182A282B38280901407909003
:103B10001507A0901607B09017078DE4829D8001CD
:103B2000839D100D11240C57184FD8016D917D9174
:103B30008D919C910E943D5A26962CAD3DAD4EAD87
:103B40005FAD26970E948E562BA13CA14DA15EA190
:103B50000E949A5E2B013C01C501B4010E943D5AAE
:103B60009B01AC01C301B2010E94E95F18162CF45D
:103B7000F80180829182A282B3828DE4829D8001CD
:103B8000839D100D1124005C184FF801EC5BFF4F72
:103B900060817181828193810E943D5A4B015C0159
:103BA000A70196010E949A5E66966CAF7DAF8EAFBC
:103BB0009FAF6697D801D2966D937D938D939C931A
:103BC000D5972DEB37E346E051E4C501B4010E94DF
:103BD0008E560E94025FF801648F758F868F978FD3
:103BE000C0900807D0900907E0900A07F0900B07F3
:103BF00020E030E040E05FE3C701B6010E948E564E
:103C00006BA37BA78CA79DA729853A854B855C85EF
:103C10006A962CAF3DAF4EAF5FAF6A9780910407B5
:103C200090910507A0910607B09107072E968CAFDB
:103C30009DAFAEAFBFAF2E9720E030E040E05FE336
:103C4000BC01CD010E948E565B018C016A966CAD61
:103C50007DAD8EAD9FAD6A979F779501A8010E94BB
:103C6000E95F181674F49501A8016BA17BA58CA5DA
:103C70009DA50E94395A87FD04C0ABA2BBA60CA724
:103C80001DA72D853E854F855889AF962CAF3DAF3A
:103C90004EAF5FAFAF978091000790910107A09161
:103CA0000207B091030762968CAF9DAFAEAFBFAF76
:103CB000629720E030E040E05FE3BC01CD010E946C
:103CC0008E565B018C01AF966CAD7DAD8EAD9FAD18
:103CD000AF979F779501A8010E94E95F181674F4C9
:103CE0009501A8016BA17BA58CA59DA50E94395AC1
:103CF00087FD04C0ABA2BBA60CA71DA78DE4829DC7
:103D0000F001839DF00D1124E05CF84F92A19AAF71
:103D1000A3A1AEAFB4A12396BFAF239725A1279649
:103D20002FAF2797292F3A2F4B2F27965FAD279735
:103D30006BA17BA58CA59DA50E94395A87FD0CC05F
:103D40003AAD3BA34EAD4BA723965FAD23975CA73F
:103D500027968FAD27978DA7E196AEADBFADE197C2
:103D600012970CF4EDC0B091510CBFA3E091520C2E
:103D7000EEA7F091530CFAAB2091540C2EAB27E137
:103D800037EB41ED58E36B2F7E2F8F2F9EA90E94BA
:103D9000E95F18160CF0DDC02091410C3091420C07
:103DA0004091430C5091440C69817A818B819C81B4
:103DB0000E94BD5D2B013C012091450C3091460CC9
:103DC0004091470C5091480C6D817E818F81988580
:103DD0000E94BD5D4B015C01A3019201C301B201D0
:103DE0000E948E562B013C01A5019401C501B4012E
:103DF0000E948E569B01AC01C301B2010E94BE5DC0
:103E00000E9432604B015C01A70196010E94E95FAC
:103E100018164CF4A5019401C701B6010E949A5EE0
:103E20007B018C0104C0E12CF12C00E81FE3209100
:103E3000490C30914A0C40914B0C50914C0C6A96B5
:103E40006CAD7DAD8EAD9FAD6A970E94BD5D4B019F
:103E50005C01E894B7F82E962CAD3DAD4EAD5FAD4C
:103E60002E97C501B4010E94E95F1816B4F4A501AC
:103E700094012E966CAD7DAD8EAD9FAD2E970E94B8
:103E80009A5E5B016C019B01AC01B701C8010E9405
:103E9000395A87FD02C07501860120914D0C309181
:103EA0004E0C40914F0C5091500CAF966CAD7DADC7
:103EB0008EAD9FADAF970E94BD5D4B015C01E89454
:103EC000B7F862962CAD3DAD4EAD5FAD6297C501C2
:103ED000B4010E94E95F1816B4F4A501940162963A
:103EE0006CAD7DAD8EAD9FAD62970E949A5E5B0119
:103EF0006C019B01AC01B701C8010E94395A87FDD2
:103F000002C0750186019701A8016AAD7EAD2396B6
:103F10008FAD239727969FAD27970E948E567B01E2
:103F20008C019B01AC016FA17EA58AA99EA90E946C
:103F3000395A87FD16C0EFA2FEA60AAB1EAB11C010
:103F40003BA13FA34BA54EA75CA55AAB8DA58EAB5D
:103F500008C09BA19FA3ABA5AEA7BCA5BAABEDA51E
:103F6000EEAB8DE4829D8001839D100D1124005CD9
:103F7000184F8FA19EA5AAA9BEA9F80182A793A751
:103F8000A4A7B5A766966CAD7DAD8EAD9FAD6697C7
:103F900090589B01AC010E94BE5DD8019E962D9168
:103FA0003D914D915C91D1970E948E569B01AC0141
:103FB0006BE077ED83E29BE30E94BD5D0E9432607F
:103FC000B62EC72E7C01262F372FAC016FA17EA500
:103FD0008AA99EA90E94395A87FD05C0DB2C8C2C2A
:103FE000AE2C9F2C04C0DFA08EA4AAA89EA88DE4AE
:103FF000829D8001839D100D1124005C184F8D2D32
:10400000982DAA2DB92DF80186A397A3A0A7B1A733
:104010002B2D3C2DA7016AAD7EAD23968FAD239746
:1040200027969FAD27970E94395A18162CF081E0E9
:10403000D801D7968C9302C0F80117AA2DE4229DCF
:10404000C001239D900D11249C01205C384F790103
:1040500081E0D901D6968C9380E1FE013196A1E4EE
:10406000BCE001900D928A95E1F78AAD9EAD239652
:10407000AFAD23972796BFAD27978093510C9093B0
:10408000520CA093530CB093540C9C01AD016BA146
:104090007BA58CA59DA50E949A5E2B013C012AADB3
:1040A0003EAD23964FAD239727965FAD27976D2D95
:1040B000782D8A2D992D0E949A5EAB01BC01930147
:1040C0008201C7010E944F306B96BFAD6B97B093D2
:1040D000160C6F962CAD3DAD4EAD5FAD6F97209336
:1040E000550C3093560C4093570C5093580CA39694
:1040F0008CAD9DADAEADBFADA3978093590C9093A1
:104100005A0CA0935B0CB0935C0CA7962CAD3DAD04
:104110004EAD5FADA79720935D0C30935E0C40933E
:104120005F0C5093600CAB968CAD9DADAEADBFAD4A
:10413000AB978093610C9093620CA093630CB09347
:10414000640C8091160C8FB7F8946090150C8FBF9B
:104150008091160C90E0861991098F709927049729
:104160004CF41091150CF12C00E080E090E02DE46F
:10417000E22EA0C08091160C83508F70F82EA12CD7
:10418000B12C00E010E09DE4492E55245394F61420
:1041900041F38F2DF11001C080E1FF24FA94F80E55
:1041A0004F9CC0011124DC01A05CB84FBCA3ABA3A1
:1041B0000115110509F469C0A114B10409F465C021
:1041C000F80172A4C3A4D4A4E5A4272D3C2D4D2D41
:1041D0005E2D66A177A180A591A50E94395A8823FA
:1041E00009F453C0D801D7968C91811144C0F501D0
:1041F00086A097A0A0A4B1A4A5019401672D7C2D51
:104200008D2D9E2D0E94E95F1816ACF5A501940135
:10421000C501B4010E948E564B015C01F80182A9D0
:1042200093A9A4A9B5A9BC01CD0190589B01AC01EB
:104230000E94BE5DD8019E962D913D914D915C915D
:10424000D1970E948E569B01AC01C501B4010E941A
:10425000BD5D0E9432601B015C019B01AC01672DBA
:104260007C2D8D2D9E2D0E94395A87FD04C0722C05
:10427000C32CDA2CEB2C872D9C2DAD2DBE2DF801F7
:1042800086A397A3A0A7B1A756AA58010BA11CA16A
:104290007ECFE19E90011124F901E05CF84F6F019F
:1042A000009769F41F5F103109F410E08F2D902FF3
:1042B000FC2C0D2D2091160C1213EBCF0AC0DC0143
:1042C000D7962C912111EECF6F2D702F0E94982F31
:1042D000E9CF009741F0FC0127A9211104C06F2DFF
:1042E000702F0E94982FD090150CE12CF12C8DE4AA
:1042F000C82E4D2D0D2C000C550B8091160C90E006
:104300004817590709F447C0C49EC001C59E900DC7
:1043100011249C01205C384F1901E114F104A1F132
:10432000D701D6968C91811104C0F90186A9882302
:1043300059F1D70192964D905D906D907C90959734
:10434000C49EF001C59EF00D1124E05CF84FA3015E
:10435000920166A177A180A591A50E949A5E4B016A
:104360005C01A3019201F70166A177A180A591A547
:104370000E949A5EAB01BC0195018401C7010E94B5
:104380004F30D701D6961C92D394B0E1DB1201C016
:10439000D12C7101AECFE114F10419F1F70182A023
:1043A00093A0A4A0B5A0A50194016DEC7CEC8CE4D5
:1043B0009DE30E949A5E2B013C01A5019401D70167
:1043C00096966D917D918D919C9199970E949A5EA0
:1043D000AB01BC0193018201C7010E944F30F7017C
:1043E00016AA80916F00826080936F00CE58DF4FD5
:1043F0000FB6F894DEBF0FBECDBFDF91CF911F91F6
:104400000F91FF90EF90DF90CF90BF90AF909F9073
:104410008F907F906F905F904F903F902F90089576
:1044200090E0FC013197E231F10508F04EC0882799
:10443000EE58FF4F8F4F0C94AA60809180008F77C9
:1044400003C0809180008F7D8093800008958091CB
:104450008000877FF9CF84B58F7702C084B58F7DC8
:1044600084BD08958091B0008F7703C08091B00023
:104470008F7D8093B0000895809190008F7707C062
:10448000809190008F7D03C080919000877F809302
:10449000900008958091A0008F7707C08091A000C0
:1044A0008F7D03C08091A000877F8093A000089536
:1044B000809120018F7707C0809120018F7D03C0FC
:1044C00080912001877F8093200108953FB7F89461
:1044D0008091BE0C9091BF0CA091C00CB091C10C0A
:1044E00026B5A89B05C02F3F19F00196A11DB11D4F
:1044F0003FBFBA2FA92F982F8827820F911DA11D8A
:10450000B11DBC01CD0142E0660F771F881F991FC6
:104510004A95D1F70895CF93DF93282F30E0F90122
:10452000EA53F74F8491F901E058F74FD491F9011C
:10453000E65CF74FC491CC2389F0811171DFEC2F39
:10454000F0E0EE0FFF1FE05EF74FA591B491EC9104
:10455000ED2381E090E021F480E002C080E090E073
:10456000DF91CF9108951F93CF93DF93282F30E0F1
:10457000F901EA53F74F8491F901E058F74FD491CC
:10458000F901E65CF74FC491CC23C1F0162F8111DD
:1045900047DFEC2FF0E0EE0FFF1FEA5FF74FA5912A
:1045A000B4918FB7F894111105C09C91ED2FE0954F
:1045B000E92302C0EC91ED2BEC938FBFDF91CF91FB
:1045C0001F910895CF93DF9390E0FC01E058F74FDF
:1045D0002491FC01E65CF74F8491882361F190E01F
:1045E000880F991FFC01E451F84FC591D491FC014B
:1045F000EA5FF74FA591B491611109C09FB7F89494
:104600008881209582238883EC912E230BC0623011
:1046100061F49FB7F8943881822F80958323888333
:10462000EC912E2B2C939FBF06C08FB7F894E88196
:104630002E2B28838FBFDF91CF9108951F93CF93A7
:10464000DF93182FEB0161E0BDDF209711F460E0EC
:1046500004C0CF3FD10531F461E0812FDF91CF91CC
:104660001F9181CFE12FF0E0EA53F74FE4914E2FF5
:1046700050E0FA013197E231F10508F09DC088273A
:10468000EC57FF4F8F4F0C94AA6084B5806884BDAF
:10469000C7BD97C084B5806284BDC8BD92C08091FB
:1046A0008000806880938000D0938900C093880048
:1046B00088C080918000806280938000D0938B00BE
:1046C000C0938A007EC080918000886080938000C3
:1046D000D0938D00C0938C0074C08091B00080682E
:1046E0008093B000C093B3006CC08091B000806232
:1046F0008093B000C093B40064C080919000806843
:1047000080939000D0939900C09398005AC08091F4
:104710009000806280939000D0939B00C0939A0099
:1047200050C080919000886080939000D0939D004D
:10473000C0939C0046C08091A00080688093A00038
:104740008091A0008F7B8093A000D093A900C0939C
:10475000A80037C08091A00080628093A000D09311
:10476000AB00C093AA002DC08091A0008860809308
:10477000A000D093AD00C093AC0023C08091200175
:10478000806880932001D0932901C093280119C02B
:1047900080912001806280932001D0932B01C093EF
:1047A0002A010FC080912001886080932001D0935E
:1047B0002D01C0932C0105C0C038D1050CF04CCFA1
:1047C00046CFDF91CF911F9108958F929F92AF9224
:1047D000BF92CF92DF92EF92FF926B017C0176DE67
:1047E0004B015C01C114D104E104F104E9F06EDE77
:1047F000DC01CB0188199909AA09BB09883E9340BD
:10480000A105B10578F321E0C21AD108E108F10849
:1048100088EE880E83E0981EA11CB11CC114D1043F
:10482000E104F10421F7DECFFF90EF90DF90CF900D
:10483000BF90AF909F908F9008952FB7F89460919C
:10484000BA0C7091BB0C8091BC0C9091BD0C2FBF29
:1048500008951F920F920FB60F9211242F933F933A
:104860008F939F93AF93BF938091BA0C9091BB0CA1
:10487000A091BC0CB091BD0C3091B90C23E0230F7A
:104880002D3720F40196A11DB11D05C026E8230F88
:104890000296A11DB11D2093B90C8093BA0C909380
:1048A000BB0CA093BC0CB093BD0C8091BE0C90913E
:1048B000BF0CA091C00CB091C10C0196A11DB11DFF
:1048C0008093BE0C9093BF0CA093C00CB093C10C0E
:1048D000BF91AF919F918F913F912F910F900FBEFC
:1048E0000F901F90189510923E0710923D0710925E
:1048F0008706109286061092D1042C981092870693
:10490000109286061092D2049FB7F894E2E0F1E08C
:1049100080818F7D80839FBF08951F920F920FB675
:104920000F9211240BB60F922F933F934F935F93E7
:104930006F937F938F939F93AF93BF93EF93FF9367
:104940008091770281111CC08091D1048093B80CB2
:10495000882311F02C9A01C02C988091D204809366
:10496000B70C9FB7882329F0F894809102018062E8
:1049700004C0F894809102018F7D809302019FBF53
:104980009091B80C80917702981708F42C98909128
:10499000B70C80917702981740F49FB7F8948091F4
:1049A00002018F7D809302019FBF809177028F5F0C
:1049B0008F77809377028091760290E08B3091051B
:1049C00008F08EC0FC018827EA56FF4F8F4F0C94E9
:1049D000AA6088E080937B0085E480937C008091CE
:1049E0007A00806480937A0081E019C02091780079
:1049F000309179008091B30C9091B40CA091B50CDA
:104A0000B091B60C820F931FA11DB11D8093B30C02
:104A10009093B40CA093B50CB093B60C82E0809345
:104A200076025EC088E080937B0086E480937C0001
:104A300080917A00806480937A0083E0F0CF2091A7
:104A40007800309179008091AF0C9091B00CA091DA
:104A5000B10CB091B20C820F931FA11DB11D8093B8
:104A6000AF0C9093B00CA093B10CB093B20C84E057
:104A7000D6CF88E080937B0087E480937C00809190
:104A80007A00806480937A0085E0C9CF2091780015
:104A9000309179008091AB0C9091AC0CA091AD0C51
:104AA000B091AE0C820F931FA11DB11D8093AB0C72
:104AB0009093AC0CA093AD0CB093AE0C86E0AFCF4E
:104AC00087E0ADCF88E0ABCF89E0A9CF1092760226
:104AD0008091AA0C8F5F8093AA0C02C0109276027C
:104AE0008091AA0C803108F4AFC08091D00481116C
:104AF00010C08091B30C9091B40C9093A90C80934A
:104B0000A80C8091AF0C9091B00C9093A70C80935F
:104B1000A60C81E08093D0041092AA0C1092B30CE2
:104B20001092B40C1092B50C1092B60C1092AB0C03
:104B30001092AC0C1092AD0C1092AE0C1092A20C14
:104B40001092A30C1092A40C1092A50C1092AF0C12
:104B50001092B00C1092B10C1092B20C8091A80C73
:104B60009091A90C8F3F9F43A4F1BDDE8091BA06BE
:104B700081112DC0E5EEF7E08491882341F09091FA
:104B8000C00095FFFCCF8093C6003196F5CF60E062
:104B900070E0CB010E9400148091C00085FFFCCF23
:104BA0008AE08093C600EBE8F7E08491882341F027
:104BB0009091C00095FFFCCF8093C6003196F5CF51
:104BC0008091C00085FFFCCF8AE08093C6000E94E0
:104BD000A6368091A80C9091A90C18161906A4F17C
:104BE00082DE8091BA0681112DC0E5EEF7E0849156
:104BF000882341F09091C00095FFFCCF8093C600C0
:104C00003196F5CF60E070E0CB010E9400148091F6
:104C1000C00085FFFCCF8AE08093C600E8EBF7E098
:104C20008491882341F09091C00095FFFCCF809340
:104C3000C6003196F5CF8091C00085FFFCCF8AE099
:104C40008093C6000E94A636FF91EF91BF91AF916D
:104C50009F918F917F916F915F914F913F912F9194
:104C60000F900BBE0F900FBE0F901F901895609184
:104C7000A80C7091A90C072E000C880B990B0E94B0
:104C80003F5A20E030E04AEF5EE30E948E5620E07B
:104C900030E040E85DE30E948E5620E030E0A9015C
:104CA0000E94BE5D609382067093830680938406A3
:104CB0009093850610927E0610927F0610928006D1
:104CC000109281068FB7F8941092D0048FBF089588
:104CD0002F923F924F925F926F927F928F929F920C
:104CE000AF92BF92CF92DF92EF92FF920F931F93FA
:104CF000CF93DF93CDB7DEB728970FB6F894DEBF1A
:104D00000FBECDBF8091D004882309F47BC1AFDFF3
:104D10008090820690908306A0908406B0908506CD
:104D200000913D0710913E07B801012E000C880B41
:104D3000990B0E943F5AA50194010E94BD5D6B0131
:104D40007C0160939E0C70939F0C8093A00C9093B9
:104D5000A10C20E030E040EA51E40E94E95F18161F
:104D600024F481E080939D0CF7C020E030E040EA1D
:104D700051ECC701B6010E94395A87FD02C0012BD0
:104D800021F481E080939D0C0CC180919D0C8823BF
:104D900051F01092990C10929A0C10929B0C109258
:104DA0009C0C10929D0C2091390230913A02409156
:104DB0003B0250913C02C701B6010E948E566983A6
:104DC0007A838B839C836093950C7093960C80936D
:104DD000970C9093980C2091990C30919A0C4091DB
:104DE0009B0C50919C0CC701B6010E94BE5D2B012B
:104DF0003C012090850C3090860C1091870C00911E
:104E0000880C9101412F502F0E94395A87FD14C000
:104E10002090810C3090820C1091830C0091840CB6
:104E20009101412F502FB201C3010E94E95F181672
:104E30001CF01201162D072DC101A12FB02F809358
:104E4000990C90939A0CA0939B0CB0939C0C20917E
:104E50003502309136024091370250913802B1014B
:104E6000812F902F0E948E566D837E838F8398872B
:104E70006093910C7093920C8093930C9093940C8C
:104E800020918D0C30918E0C40918F0C5091900C94
:104E9000C501B4010E94BD5D209131023091320202
:104EA00040913302509134020E948E5620ED3CEC2A
:104EB0004CE45DE30E948E562B013C0123E333E377
:104EC00043E75FE36091890C70918A0C80918B0CB1
:104ED00090918C0C0E948E569B01AC01C301B201D3
:104EE0000E94BE5D2B013C016093890C70938A0C7B
:104EF00080938B0C90938C0C2D813E814F81588533
:104F000069817A818B819C810E94BE5DA30192019F
:104F10000E94BD5D2B013C0120E030E04FE753E4EF
:104F20000E94E95F20E030E0A9011816E4F4C7010F
:104F3000B6010E94E95F18167CF4A7019601B10141
:104F4000812F902F0E94BD5D6093990C70939A0CF5
:104F500080939B0C90939C0C412C512C9FE7692EC5
:104F600093E4792E21C0C301B2010E94395A87FF10
:104F70001BC020E030E0A901C701B6010E94395AE8
:104F800087FF0FC0A7019601B101812F902F0E94CA
:104F9000BD5D6093990C70939A0C80939B0C9093D9
:104FA0009C0C412C512C320180928D0C90928E0CD5
:104FB000A0928F0CB092900C20E030E0A901C501C6
:104FC000B4010E94E95F1816DCF4609174027091DC
:104FD0007502072E000C880B990B0E943F5A9B010B
:104FE000AC01C501B4010E94395A87FF09C0C30151
:104FF000B2010E94025F759567956093D10402C06B
:105000001092D10428960FB6F894DEBF0FBECDBF24
:10501000DF91CF911F910F91FF90EF90DF90CF9094
:10502000BF90AF909F908F907F906F905F904F90C8
:105030003F902F9008952091350230913602409193
:1050400037025091380260E070E08FE793E40E94ED
:105050009A5E6093810C7093820C8093830C909382
:10506000840C209125023091260240912702509114
:10507000280260E070E08FE793E40E949A5E6093FC
:105080007D0C70937E0C80937F0C9093800C089520
:1050900011D05F9AE2E1FCE010828A9A11829FB7F8
:1050A000F894A8E0B1E08C9181608C939FBF12824C
:1050B000129A08959091160C8091150C981721F072
:1050C00007DE0E944B15F6CF08951F920F920FB680
:1050D0000F9211240BB60F920F931F932F933F93B0
:1050E0004F935F936F937F938F939F93AF93BF93F0
:1050F000CF93DF93EF93FF93E091700DF091710DDB
:10510000309709F080C19091160C8091150C98177A
:1051100069F0E091150C2DE4E29FF0011124E05CB0
:10512000F84FDF01A45BBF4F81E08C93F093710DCA
:10513000E093700D309709F460C1DF01A45BBF4FAD
:1051400021E02C9310926C0D10926D0D10926E0D4B
:1051500010926F0D80AD91AD81343CE9930728F436
:1051600081326EE4960748F002C080E49CE996958F
:1051700087959695879524E007C0813177E2970758
:1051800030F09695879522E020936B0D07C0209311
:105190006B0D8032910510F480E290E080978115CC
:1051A00028E09207E8F0E92FFF27EE0FFF1FEE0F30
:1051B000FF1F9F01245F324FF90132966591749170
:1051C000AA27879FA001869F410D5A1F06944A1F58
:1051D0005A1F1124F90125913491241B350B20C04D
:1051E0009C01369527952C7F245F364FF901459118
:1051F0005491F9013296A591B491BC01677077275B
:10520000A69F9001A79F300DB69F300D112413E08B
:10521000369527951A95E1F7BA01621B730B9B012E
:105220002436310580F4ECEDF3E02191222339F0AE
:105230003091C00035FFFCCF2093C600F6CF0E940E
:10524000961424E630E030936A0D2093690D809126
:105250006B0D082E000C990B9093680D8093670DD1
:10526000E091700DF091710D84AD95AD9093660D48
:105270008093650D81347CE9970728F481322EE410
:10528000920748F002C080E49CE996958795969530
:10529000879524E007C0813137E2930730F0969577
:1052A000879522E020936B0D08C021E020936B0DC1
:1052B0008032910510F480E290E08097811568E0DB
:1052C0009607E8F0E92FFF27EE0FFF1FEE0FFF1FF5
:1052D0009F01245F324FF901329665917491AA279C
:1052E000879FA001869F410D5A1F06944A1F5A1F8F
:1052F0001124F90125913491241B350B20C09C0108
:10530000369527952C7F245F364FF90145915491AE
:10531000F9013296A591B491BC0167707727A69FD9
:105320009001A79F300DB69F300D112473E0369584
:1053300027957A95E1F7BA01621B730B9B0124361E
:10534000310580F4ECEDF3E02191222339F0309126
:10535000C00035FFFCCF2093C600F6CF0E94961404
:1053600024E630E0C901A0E0B0E08093610D9093A5
:10537000620DA093630DB093640D30938900209368
:105380008800E091700DF091710D80899189A2895A
:10539000B389B695A79597958795B095A095909563
:1053A00081959F4FAF4FBF4F80935D0D90935E0DE2
:1053B000A0935F0DB093600D8093590D90935A0D9B
:1053C000A0935B0DB0935C0D8093550D9093560D9B
:1053D000A093570DB093580D8093510D9093520D9B
:1053E000A093530DB093540D10924D0D10924E0D8D
:1053F00010924F0D1092500D06C080ED97E09093E3
:10540000890080938800E091700DF091710D3097C4
:1054100009F477C580A180934C0D80FF03C0899A61
:105420008FEF02C0899881E08093780280914C0DC3
:1054300081FF03C08F9A8FEF02C08F9881E0809325
:10544000790220914C0D9091000220FF3CC09923DD
:1054500009F472C0659902C080E032C080914B0DA2
:10546000882309F44CC5E091700DF091710D4081D5
:1054700051816281738114161506160617060CF009
:105480003EC54091210C5091220C6091230C7091EB
:10549000240C4093BB065093BC066093BD067093EA
:1054A000BE0681E08093C90640895189628973896B
:1054B00040934D0D50934E0D60934F0D7093500DD2
:1054C00080934B0D39C09923B9F18CB131E08295AD
:1054D0008170832779F140914A0D442359F1E0917D
:1054E000700DF091710D40815181628173811416AC
:1054F000150616061706F4F44091210C5091220C63
:105500006091230C7091240C4093BB065093BC0611
:105510006093BD067093BE063093C90640895189D9
:105520006289738940934D0D50934E0D60934F0DDA
:105530007093500D80934A0D21FF3DC0992309F4CB
:1055400076C08091030181FD02C080E031C080916E
:10555000490D882361F1E091700DF091710D848106
:105560009581A681B781181619061A061B06FCF448
:105570008091250C9091260CA091270CB091280CBD
:105580008093BF069093C006A093C106B093C20655
:1055900081E08093C80680899189A289B38980932C
:1055A0004D0D90934E0DA0934F0DB093500D81E093
:1055B0008093490D3CC09923D1F180910301817002
:1055C00091E08927382F3170882379F18091480D37
:1055D000882359F1E091700DF091710D448155814E
:1055E000668177811416150616061706F4F44091A5
:1055F000250C5091260C6091270C7091280C40933B
:10560000BF065093C0066093C1067093C206909384
:10561000C80680899189A289B38980934D0D9093A2
:105620004E0DA0934F0DB093500D3093480D9FB782
:1056300022FF48C0F89480910B018D7F80930B016D
:105640009FBF8FEF80937A0280910002882309F434
:105650007EC089B191E083FB882780F9892779F1A1
:105660002091470D222359F1E091700DF091710DB9
:105670004085518562857385141615061606170632
:10568000F4F44091290C50912A0C60912B0C7091EC
:105690002C0C4093C3065093C4066093C5067093C8
:1056A000C6069093C70640895189628973894093E1
:1056B0004D0D50934E0D60934F0D7093500D809390
:1056C000470D45C0F89480910B01826080930B01D7
:1056D0009FBF91E090937A02809100028823B9F1F4
:1056E00089B182FB882780F9892779F12091460DBD
:1056F000222359F1E091700DF091710D4085518593
:10570000628573851416150616061706F4F4409183
:10571000290C50912A0C60912B0C70912C0C409309
:10572000C3065093C4066093C5067093C606909353
:10573000C706408951896289738940934D0D509302
:105740004E0D60934F0D7093500D8093460D8091D8
:105750004C0D83FF06C0169A8FEF80937B0220E0EA
:10576000A7C1169881E0F9CF8091C00087FDA6C13E
:10577000E091700DF091710D40915D0D50915E0DB5
:1057800060915F0D7091600D80819181A281B381E4
:10579000840F951FA61FB71F80935D0D90935E0D1C
:1057A000A0935F0DB093600D181619061A061B061C
:1057B000CCF5889AE091700DF091710D80915D0D9E
:1057C00090915E0DA0915F0DB091600D408951895F
:1057D00062897389841B950BA60BB70B80935D0DB3
:1057E00090935E0DA0935F0DB093600D8091780251
:1057F0004091210C5091220C6091230C7091240C4B
:10580000082E000C990BAA0BBB0B840F951FA61F2B
:10581000B71F8093210C9093220CA093230CB0937C
:10582000240C8898E091700DF091710D4091590D04
:1058300050915A0D60915B0D70915C0D8481958142
:10584000A681B781840F951FA61FB71F8093590D9E
:1058500090935A0DA0935B0DB0935C0D181619062A
:105860001A061B06CCF58E9AE091700DF091710D21
:105870008091590D90915A0DA0915B0DB0915C0DE6
:105880004089518962897389841B950BA60BB70BDC
:105890008093590D90935A0DA0935B0DB0935C0DBE
:1058A000809179024091250C5091260C6091270C33
:1058B0007091280C082E000C990BAA0BBB0B840FBF
:1058C000951FA61FB71F8093250C9093260CA093BD
:1058D000270CB093280C8E98E091700DF091710D0B
:1058E0004091550D5091560D6091570D7091580D86
:1058F00080859185A285B385840F951FA61FB71F4C
:105900008093550D9093560DA093570DB093580D5D
:10591000181619061A061B060CF047C09FB7F89414
:1059200080910B01886080930B019FBFE091700D07
:10593000F091710D8091550D9091560DA091570DDC
:10594000B091580D4089518962897389841B950BE8
:10595000A60BB70B8093550D9093560DA093570D42
:10596000B093580D80917A024091290C50912A0CE5
:1059700060912B0C70912C0C082E000C990BAA0B2B
:10598000BB0B840F951FA61FB71F8093290C909304
:105990002A0CA0932B0CB0932C0C9FB7F8948091F9
:1059A0000B01877F80930B019FBFE091700DF091F9
:1059B000710D4091510D5091520D6091530D7091A8
:1059C000540D84859585A685B785840F951FA61FE0
:1059D000B71F8093510D9093520DA093530DB09328
:1059E000540D181619061A061B06CCF5149AE091E8
:1059F000700DF091710D8091510D9091520DA0910B
:105A0000530DB091540D4089518962897389841B6B
:105A1000950BA60BB70B8093510D9093520DA0934D
:105A2000530DB093540D80917B0240912D0C5091F9
:105A30002E0C60912F0C7091300C082E000C990BDD
:105A4000AA0BBB0B840F951FA61FB71F80932D0CAD
:105A500090932E0CA0932F0CB093300C149880913F
:105A60004D0D90914E0DA0914F0DB091500D01969E
:105A7000A11DB11D80934D0D90934E0DA0934F0D20
:105A8000B093500D40914D0D50914E0D60914F0DC2
:105A90007091500DE091700DF091710D8089918998
:105AA000A289B389481759076A077B0710F52F5F4A
:105AB00080916B0D28170CF457CE1BC03091C60097
:105AC0004091420D5091430DCA0101968F7799275D
:105AD0006091440D7091450D8617970709F448CEE3
