:100000000C94BF080C94F0080C94F0080C94F008C1
:100010000C94F0080C94F0080C94F0080C94F00880
:100020000C94F0080C94F0080C94F0080C94F00870
:100030000C94F0080C94F0080C94F0080C94F00860
:100040000C94F0080C942D280C94F0080C94F008F3
:100050000C94F0080C94F0080C9455240C94F123A3
:100060000C94F0080C94AD0B0C94F0080C94F00870
:100070000C94F0080C94F0080C94F0080C94F00820
:100080000C940C340C94F0080C94F0080C94F008C8
:100090000C94F0080C94F0080C94F0080C94F00800
:1000A0000C94F0080C94F0080C94DF330C94F008D6
:1000B0000C94F0080C94F0080C94F0080C94B233F3
:1000C0000C94F0080C94F0080C94F0080C94F008D0
:1000D0000C94F0080C94F0080C94F0080C94F008C0
:1000E0000C94F008F321F621E521E921EF212D22DE
:1000F000FA21FE21042208220C22122216221A22A0
:100100002D222022242228220D23122317232123EB
:100110002B23A42335233D2345234F235923632336
:1001200072237C23A423862390239A23B124BE2404
:10013000DA24E72401250E2528252A252C252E251D
:100140003625084AD73B3BCE016E84BCBFFDC12F8C
:100150003D6C74319ABD56833DDA3D00C77F11BEB8
:10016000D9E4BB4C3E916BAAAABE000000803F05BB
:10017000A84CCDB2D44EB93836A9020C50B99186EC
:1001800088083CA6AAAA2ABE000000803F004E4173
:100190004E494E495459494E46CDCCCC3D0AD72301
:1001A0003C17B7D13877CC2B329595E6241FB14F49
:1001B0000A000020410000C84200401C4620BCBE8E
:1001C0004CCA1B0E5AAEC59D7450494420417574EB
:1001D0006F74756E652066696E6973686564212049
:1001E00050757420746865206C617374204B702C9A
:1001F000204B6920616E64204B6420636F6E7374C2
:10020000616E74732066726F6D2061626F76652017
:10021000696E746F20436F6E666967757261746989
:100220006F6E2E6800504944204175746F74756E6E
:1002300065206661696C6564212074696D656F7500
:10024000740020403A006F6B20543A006F6B2042DC
:100250003A00504944204175746F74756E6520668C
:1002600061696C6564212054656D70657261747597
:10027000726520746F6F206869676800204B643A6C
:100280002000204B693A2000204B703A2000204388
:100290006C61737369632050494420002054753A9F
:1002A0002000204B753A2000206D61783A20002014
:1002B0006D696E3A200020643A2000206269617303
:1002C0003A2000D3C3BBA7C9E8D6C3D2D1B1A3B4E7
:1002D000E6002200556E6B6E6F776E20636F6D6D5A
:1002E000616E643A202200795F6D696E3A20007871
:1002F0005F6D696E3A200020526F746174696F6E91
:100300002041726D0020536D616C6C2041726D3A1A
:10031000004269672041726D3A00205A3A00205924
:100320003A0020436F756E7420583A2000205A3AE4
:100330000020593A00583A004649524D574152451B
:100340005F4E414D453A4D61726C696E2056312EBB
:10035000302E323B20537072696E7465722F677253
:10036000626C206D617368757020666F72206765BE
:100370006E36204649524D574152455F55524C3AD0
:1003800068747470733A2F2F6769746875622E638E
:100390006F6D2F4D61726C696E4669726D77617217
:1003A000652F4D61726C696E2050524F544F434F10
:1003B0004C5F56455253494F4E3A312E30204D41F5
:1003C0004348494E455F545950453A6472617762DB
:1003D0006F742045585452554445525F434F554E13
:1003E000543A3120555549443A303030303030306D
:1003F000302D303030302D303030302D3030303006
:100400002D3030303030303030303030300A002055
:10041000423A0020453A00543A0020573A0020451D
:100420003A00543A0057002042403A00570020401A
:100430003A00202F003A00205400202F0020423A9A
:1004400000202F006F6B20543A002569206D696EE3
:100450002C2025692073656300205A3A0020593A00
:100460000020583A00656E6473746F707320686979
:10047000743A20006563686F3A00205400094D34D7
:10048000204C00B6E6BBFABDC7B6C8A3A84CC2E470
:10049000B1CA54CCA7B1CAA3A93A002000094D3271
:1004A0003035205800D4CBB6AFC6BDBBACB6C83AC9
:1004B000002000205900094D323031205800D4CBA3
:1004C000B6AFBCD3CBD9B6C8286D6D2F7332293ADD
:1004D000002000205900094D323033205800D7EE5B
:1004E000B4F3D4CBB6AFCBD9B6C8286D6D2F732972
:1004F0003A002000205900094D333637205800D7E4
:10050000F8B1EAC6ABD2C6C9E8D6C33A002000208B
:100510005900094D3932205800B5E7BBFAB7D6B1BA
:10052000E6C2CA3A002000D3C3BBA7C9E8D6C3D2EB
:10053000D1D4D8C8EB002000B3F6B3A7C9E8D6C31E
:10054000D2D1BBD6B8B400200020004F6374202065
:1005500032203230313820002020B8FCD0C2CAB15D
:10056000BCE43A00563500B9CCBCFEB0E6B1BE3AA8
:1005700000200051513A3130323832343031323685
:1005800000C3CEB4B4BFC6BCBC20200020536F66ED
:1005900074776172652052657365740020576174C9
:1005A0006368646F67205265736574002042726FE0
:1005B000776E206F757420526573657400204578DE
:1005C0007465726E616C20526573657400506F774C
:1005D0006572557000200068747470733A2F2F7321
:1005E000686F7036353631343633352E74616F624C
:1005F000616F2E636F6D2F0020005072696E7465FD
:10060000722073746F707065642064756520746FF8
:10061000206572726F72732E204669782074686547
:10062000206572726F7220616E6420757365204D53
:1006300039393920746F20726573746172742E2099
:100640002854656D706572617475726520697320D8
:1006500072657365742E2053657420697420616619
:100660007465722072657374617274696E672900B3
:100670004E6F204C696E65204E756D6265722077F5
:1006800069746820636865636B73756D2C204C61B9
:100690007374204C696E653A20004E6F2043686584
:1006A000636B73756D2077697468206C696E652063
:1006B0006E756D6265722C204C617374204C696E8E
:1006C000653A2000636865636B73756D206D6973AF
:1006D0006D617463682C204C617374204C696E6585
:1006E0003A20004C696E65204E756D626572206916
:1006F00073206E6F74204C617374204C696E65209A
:100700004E756D6265722B312C204C617374204CD8
:10071000696E653A20004D313130003A20457874D9
:100720007275646572207377697463686564206F9D
:1007300066662E204D415854454D502074726967AD
:1007400067657265642021003A204578747275648B
:100750006572207377697463686564206F66662EBE
:10076000204D494E54454D5020747269676765723B
:1007700065642021004572726F723A00000021000A
:10078000240027002A002D00300033000101000062
:10079000040107010A0100002200250028002B00A7
:1007A0002E003100340002010000050108010B0198
:1007B000000020002300260029002C002F0032001A
:1007C00000010000030106010901050505050705F3
:1007D00008080808020202020A0A080804040404BD
:1007E00001010101010101010303030303030303E9
:1007F000040707070C0C0C0C0C0C0C0C0202020278
:1008000006060606060606060B0B0B0B0B0B0B0B60
:100810000102102020080810204010204080020112
:1008200002010804020101020408102040808040F7
:1008300020100804020180040201804020100804F6
:100840000201080402010102040810204080010294
:1008500004081020408000000A0B02090C0D0E084D
:100860000703040100000000000000000000000079
:100870000000000000000000000000000000000078
:100880000000121110000000000000000000000035
:1008900000000000000000000000000024F4D4303C
:1008A00050C38E20C2A24017828B7011127A910D14
:1008B000816CD90AA861E108C758660761514306EF
:1008C0001E4B5D05C145A7041A411104093D98035B
:1008D000713931034036DB0265339102D430540262
:1008E000802E1D02632CEE01752AC501B028A001DF
:1008F000102781018F2564012B244B01E022340154
:10090000AC211F018D200D01801FFC00841EED0015
:10091000971DDF00B81CD200E61BC600201BBC00E0
:10092000641AB200B219A8000A19A0006A18990046
:10093000D117910040178B00B516840031167E0048
:10094000B31579003A157300C7146F0058146A0084
:10095000EE1366008813630025135E00C7125B0068
:100960006C12570015125400C111510070114F0044
:1009700021114B00D61049008D104700461044004D
:1009800002104200C00F4000800F3E00420F3C00AA
:10099000060F3B00CB0E3800930E37005C0E35007F
:1009A000270E3400F30D3200C10D3100900D3000E0
:1009B000600D2E00320D2D00050D2C00D90C2B00E2
:1009C000AE0C2900850C29005C0C2700350C270093
:1009D0000E0C2600E80B2400C40B2400A00B2300FF
:1009E0007D0B23005A0B2100390B2100180B20002E
:1009F000F80A1F00D90A1E00BB0A1E009D0A1D002E
:100A0000800A1D00630A1C00470A1B002C0A1B00F9
:100A1000110A1A00F7091A00DD091900C4091900A2
:100A2000AB091900920917007B0918006309170028
:100A30004C09160036091600200916000A0915008F
:100A4000F5081500E0081400CC081400B8081400DC
:100A5000A4081400900813007D0812006B0813000E
:100A6000580812004608120034081100230811002B
:100A70001208110001081100F0071000E007100033
:100A8000D0071000C0071000B0070F00A10710002A
:100A900091070E0083070F0074070F0065070E0013
:100AA00057070E0049070E003B070D002E070E00EA
:100AB00020070D0013070D0006070D00F9060C00B6
:100AC000ED060D00E0060C00D4060C00C8060C0074
:100AD000BC060C00B0060C00A4060B0099060C0026
:100AE0008D060B0082060B0077060B006C060B00D0
:100AF00061060A0057060B004C060A0042060A006F
:100B000038060A002E060A0024060A001A060A0001
:100B10001006090007060A00FD050900F405090092
:100B2000EB050900E2050900D9050900D005090017
:100B3000C7050900BE050900B5050800AD05080098
:100B4000A50509009C050800940508008C0508000F
:100B5000840508007C050800740508006C05070082
:100B6000650508005D050700560508004E050700ED
:100B70004705070040050800380507003105070054
:100B80002A050700230507001C05060016050700B7
:100B90000F0507000805060002050700FB04060014
:100BA000F5040700EE040600E8040600E20407006E
:100BB000DB040600D5040600CF040600C9040600C5
:100BC000C3040600BD040600B7040600B104050016
:100BD000AC040600A6040600A00405009B04060061
:100BE00095040500900406008A04050085040500AC
:100BF000800406007A0405007504050070040500F1
:100C00006B04050066040500610405005C04050032
:100C100057040500520405004D0405004804050072
:100C2000430405003E0404003A04050035040500B1
:100C3000300404002C0405002704040023040500EC
:100C40001E0404001A040400160405001104040024
:100C50000D04040009040500040404000004040059
:100C6000FC030400F8030400F4030400F003040090
:100C7000EC030400E8030400E4030400E0030400C0
:100C8000DC030400D8030400D4030400D0030400F0
:100C9000CC030400C8030300C503030024F404D9F3
:100CA000201BC40C5C0E9804C4095F026507710127
:100CB000F405F900FB04B30048048700C103690090
:100CC0005803550003034500BE023A008402310078
:100CD00053022A002902250004022000E4011C001E
:100CE000C8011900AF011700980114008401130016
:100CF000710110006101100051010E0043010D004F
:100D000036010B002B010B0020010B00150109001F
:100D10000C01090003010800FB000800F3000800B3
:100D2000EB000700E4000600DE000600D800060025
:100D3000D2000600CC000500C7000500C200050077
:100D4000BD000400B9000400B5000400B1000400B7
:100D5000AD000400A9000400A5000300A2000300E8
:100D60009F0004009B000300980003009500020010
:100D700093000300900003008D0002008B0003002D
:100D80008800020086000200840003008100020047
:100D90007F0002007D0002007B000200790002005B
:100DA000770001007600020074000200720001006A
:100DB000710002006F0002006D0001006C00020073
:100DC0006A0001006900020067000100660001007E
:100DD0006500010064000200620001006100010082
:100DE000600001005F0002005D0001005C00010086
:100DF0005B0001005A000100590001005800010089
:100E00005700010056000100550001005400010088
:100E10005300000053000100520001005100010086
:100E2000500001004F0001004E0000004E00010084
:100E30004D0001004C0001004B0000004B00010080
:100E40004A0001004900010048000000480001007C
:100E50004700010046000000460001004500000078
:100E60004500010044000100430000004300010070
:100E7000420000004200010041000000410001006A
:100E8000400001003F0000003F0001003E00000064
:100E90003E0001003D0000003D0001003C0000005C
:100EA0003C0000003C0001003B0000003B00010052
:100EB0003A0000003A00010039000000390001004A
:100EC0003800000038000000380001003700000042
:100ED0003700010036000000360000003600010037
:100EE000350000003500000035000100340000002E
:100EF0003400000034000100330000003300000023
:100F00003300010032000000320000003200010016
:100F1000310000003100000031000100300000000D
:100F200030000000300001002F0000002F00000002
:100F30002F0000002F0001002E0000002E000000F6
:100F40002E0001002D0000002D0000002D000000EB
:100F50002D0001002C0000002C0000002C000000DF
:100F60002C0001002B0000002B0000002B000000D3
:100F70002B0001002A0000002A0000002A000000C7
:100F80002A000100290000002900000029000000BB
:100F900029000000290001002800000028000000AE
:100FA00028000000280000002800010027000000A1
:100FB0002700000027000000270000002700010094
:100FC0002600000026000000260000002600000089
:100FD000260001002500000025000000250000007B
:100FE000250000002500000025000100240000006D
:100FF0002400000024000000240000002400010060
:101000002300000023000000230000002300000054
:101010002300000023000000230001002200000044
:101020002200000022000000220000002200000038
:10103000220001002100000021000000210000002A
:10104000210000002100000021000000210001001B
:101050002000000020000000200000002000000010
:1010600020000000200000002000000020000100FF
:101070001F0000001F0000001F0000001F000000F4
:101080001F0000001F0000001F0001001E000000E4
:101090001E0000001E0000001E0000005265736567
:1010A0006E643A20006F6B005072696E7465722036
:1010B00068616C7465642E206B696C6C28292063F0
:1010C000616C6C656421005072696E746572207386
:1010D000746F707065642064756520746F2065722C
:1010E000726F72732E20466978207468652065726D
:1010F000726F7220616E6420757365204D393939C5
:1011000020746F20726573746172742E2028546588
:101110006D70657261747572652069732072657394
:1011200065742E205365742069742061667465723D
:101130002072657374617274696E6729000000FA29
:10114000430000FA43000061430000FAC30000FAC4
:10115000C3CDCCCC3D0000B0C1000050C2CDCCCC42
:101160003D00004040000040400000404000007A48
:101170004400007A4466E66043FFFF0132561124C2
:101180001FBECFEFD1E2DEBFCDBF00E00CBF14E049
:10119000A0E0B2E0E4E6F1EC00E00BBF02C0079093
:1011A0000D92AC35B107D9F72DE0ACE5B4E001C044
:1011B0001D92A838B207E1F718E0CFEBD8E000E0C5
:1011C00006C021970109802FFE010E947260CE3B6C
:1011D000D10780E00807A9F70E94CA390C94B060D3
:1011E0000C940000FC01CB01BA012491222341F0B0
:1011F0003091C00035FFFCCF2093C6003196F5CF6B
:101200004AE00C945313EF92FF921F93CF93DF9316
:101210007C01C62FD72F142F160FF70180819181E3
:101220000E94035D8993F7018081918101969183EA
:1012300080831C13F2CFDF91CF911F91FF90EF902D
:101240000895682F880F770B2091C2063091C3064E
:1012500040E6429FC001439F900D112489529B4F4D
:101260000E948E609C01909375068093740681E0C5
:10127000232B09F480E008958091740690917506FF
:1012800060E070E001960C940A574F925F926F9263
:101290007F928F929F92AF92BF92CF92DF92EF9206
:1012A000FF920F931F93CF93DF9380E6F82EC4E055
:1012B000D0E00AEF15E09AE0E92EDD24D3944091C6
:1012C0003A0D50913B0D80913C0D90913D0D9A014E
:1012D000281B390B2F773327232B09F41CC22091AD
:1012E000170C3091180C243031050CF014C248173B
:1012F000590761F0FC01E654F34F208101968F7786
:10130000992790933D0D80933C0D02C02FEF3FEF46
:10131000822F2093F7062091F4063091F5068A304B
:1013200061F08D3051F08A3321F49091F6069923C3
:1013300021F02F3531050CF478C12115310519F450
:101340001092F606E8C18091F2069091F306F89E9D
:101350005001F99EB00C11242A0D3B1DF901E952F0
:10136000FB4F10822091F60621115AC11092F60609
:10137000FC01E251F94F1082C50189529B4F4C018B
:101380006EE470E00E948E60009709F49DC0909317
:10139000750680937406881999098A0D9B1D4AE089
:1013A00050E060E070E088529B4F0E94705860935C
:1013B000EA067093EB068093EC069093ED0680901E
:1013C000570690905806A0905906B0905A062401EE
:1013D0003501EFEF4E1A5E0A6E0A7E0AA090F20601
:1013E000B090F306641575058605970509F43CC1B0
:1013F000FA9CC001FB9C900D112466E177E08952B4
:101400009B4F0E94B859892B09F02EC1E5E7F7E000
:101410008491882341F09091C00095FFFCCF809388
:10142000C6003196F5CFE3EEF6E08491882341F0D3
:101430009091C00095FFFCCF8093C6003196F5CF08
:1014400060915706709158068091590690915A06FE
:101450000E94C8138091C00085FFFCCF2FC030933D
:10146000750620937406C9018A199B09880D991D78
:1014700060E070E088529B4F0E940A570E94CA5E4B
:101480002C2D30E02617370709F456C0E5E7F7E0C2
:101490008491811107C1E4ECF6E0849181110AC1C5
:1014A00060915706709158068091590690915A069E
:1014B0000E94C8138091C00085FFFCCF8AE0809312
:1014C000C6000E949D3933C06AE270E0C4010E94E8
:1014D0008E60892B09F440C0E5E7F7E0849188230A
:1014E00041F09091C00095FFFCCF8093C6003196EB
:1014F000F5CFE0E7F6E08491882341F09091C000B9
:1015000095FFFCCF8093C6003196F5CF60915706CA
:10151000709158068091590690915A060E94C813FE
:101520008091C00085FFFCCF8AE08093C6001092B6
:10153000F5061092F406EFC08091EA069091EB0652
:10154000A091EC06B091ED06809357069093580653
:10155000A0935906B0935A068091F2069091F30633
:10156000F89E5001F99EB00C1124C50189529B4F81
:101570004C0167E470E00E948E60009761F19093E7
:10158000750680937406881999098A0D9B1D60E081
:1015900070E088529B4F0E940A570E94CA5E6430D6
:1015A0007105C8F48091B2068823A9F0F8018491EE
:1015B000EAEFF5E0882349F09091C00095FFFCCF59
:1015C0008093C60031968491F5CF8091C00085FF4D
:1015D000FCCFE092C600A090F206B090F306FA9C11
:1015E000C001FB9C900D11246FEC73E089529B4F5E
:1015F0000E949960892B11F40E94A936C5010196B9
:10160000BE010E945F609093F3068093F206809182
:10161000170C9091180C01969093180C8093170C4E
:101620001092F5061092F4064ACE8B3311F4D09244
:10163000F6069091F606911142CE4091F206509135
:10164000F306B9016F5F7F4F7093F5066093F40660
:10165000F49ED001F59EB00D11242A0F3B1FD90135
:10166000A952BB4F8C932BCEFA9C4001FB9C900C53
:101670001124C40189529B4F5C016AE270E00E9410
:101680008E609C01892BF1F090E0C12CF401E90FF0
:10169000F11DE952FB4F80818A3209F4E0CE9F5F51
:1016A000C826F4CF9091C00095FFFCCF8093C60070
:1016B0003196EECE9091C00095FFFCCF8093C6008E
:1016C0003196EBCEE5E7F7E08491882341F09091E5
:1016D000C00095FFFCCF8093C6003196F5CFEAE9B4
:1016E000F6E08491882341F09091C00095FFFCCFF3
:1016F0008093C6003196F5CF6091570670915806D9
:101700008091590690915A060E94C8138091C0009A
:1017100085FFFCCFD3CEDF91CF911F910F91FF902A
:10172000EF90DF90CF90BF90AF909F908F907F9081
:101730006F905F904F900895FC01CB01BA01249106
:10174000222341F03091C00035FFFCCF2093C6002A
:101750003196F5CF42E00C94DA131F920F920FB638
:101760000F9211240BB60F922F933F934F936F93C9
:101770007F938F939F93EF93FF934091C6002091A7
:101780003A0D30913B0DC90101968F7799276091F1
:101790003C0D70913D0D8617970741F0F901E65415
:1017A000F34F408390933B0D80933A0DFF91EF915F
:1017B0009F918F917F916F914F913F912F910F90BA
:1017C0000BBE0F900FBE0F901F9018952F923F9257
:1017D0004F925F926F927F928F929F92AF92BF9241
:1017E000CF92DF92EF92FF920F931F93CF93DF93ED
:1017F000CDB7DEB7E0970FB6F894DEBF0FBECDBF12
:1018000080E1E0EEF2E0DE01919601900D928A9582
:10181000E1F780E1E0EFF2E0DE01519601900D92F8
:101820008A95E1F780E1E0E0F3E0DE0111960190B6
:101830000D928A95E1F7DE0191960DE51CE0BE015F
:101840006F5E7F4F4CE157E0CE0101966C0123E6BD
:1018500036E091E0292E92E0392E7E0191E3E90EE7
:10186000F11C812C912CE0E8AE2EEFE3BE2E4D90C2
:101870005D906D907D90F8014192519261927192CC
:101880008F01FB014190519061907190BF01FA016D
:101890004192519261927192AF01F6014190519043
:1018A000619071906F01F901419251926192719230
:1018B0009F01F10181929192A192B1921F01AE1507
:1018C000BF05A9F60E94CF2F80E090E0A0E2B1E42E
:1018D0008093440290934502A0934602B09347023E
:1018E00080E090E0A4EBB2E4809348029093490238
:1018F000A0934A02B0934B0280E090E0AAE7B4E4E0
:101900008093140790931507A0931607B0931707B9
:1019100080E090E0AAEFB4E4809318079093190751
:10192000A0931A07B0931B0710922C0710922D0753
:1019300010922E0710922F0780E29EE4A0E0B0E004
:1019400080935F0690936006A0936106B093620651
:10195000109230071092310710923207109233071D
:101960008AE999E9A9E9BFE3809300079093010709
:10197000A0930207B09303078DEC9CECACECBEE3A4
:101980008093FC069093FD06A093FE06B093FF069D
:10199000C12CD12C80E4E82EFE2CC092F806D09207
:1019A000F906E092FA06F092FB0610929206109267
:1019B0009306109294061092950610928E0610923D
:1019C0008F06109290061092910610928A0610923D
:1019D0008B0610928C0610928D0680E090E0A8E4B1
:1019E000B3E48093110290931202A0931302B09378
:1019F000140280930D0290930E02A0930F02B093F5
:101A000010021092D3041092D4041092D5041092B4
:101A1000D6041092CF041092D0041092D1041092E8
:101A2000D20480E090E0A1E0B3EC809315029093A3
:101A30001602A0931702B093180280E090E0A0E095
:101A4000B3E48093190290931A02A0931B02B093FF
:101A50001C0210921D0210921E0210921F02109280
:101A6000200283E393E3AFE2B2EC80934C029093C5
:101A70004D02A0934E02B0934F028AE999E9A1EB7F
:101A8000B2E48093500290935102A0935202B0931B
:101A90005302109254021092550210925602109264
:101AA000570280E090E0A4ECB1E480933902909377
:101AB0003A02A0933B02B0933C0280EC9AEDA6E67A
:101AC000BEE38093350290933602A0933702B09321
:101AD00038028AEE94E5A7E2B4E480933102909351
:101AE0003202A0933302B09334020E94E32780E0D5
:101AF00090E0A0E8BFE380932D0290932E02A09384
:101B00002F02B093300210927306C0923F02D0921F
:101B10004002E0924102F09242020E94A035E7E4C6
:101B2000F5E08491882341F09091C00095FFFCCFAF
:101B30008093C6003196F5CF8091C00085FFFCCF21
:101B40008AE08093C600E8E3F5E08491882341F0C1
:101B50009091C00095FFFCCF8093C6003196F5CFE1
:101B60008091C00085FFFCCF8AE08093C600E0969C
:101B70000FB6F894DEBF0FBECDBFDF91CF911F919E
:101B80000F91FF90EF90DF90CF90BF90AF909F901C
:101B90008F907F906F905F904F903F902F9008951F
:101BA000E5E2F5E08491882341F09091C00095FF33
:101BB000FCCF8093C6003196F5CF8091C00085FFA1
:101BC000FCCF8AE08093C600E9E1F5E084918823A8
:101BD00041F09091C00095FFFCCF8093C6003196F4
:101BE000F5CF8091C00085FFFCCF8AE08093C600CE
:101BF00040915D0C50915E0C60915F0C7091600C97
:101C000082E195E099DD4091610C5091620C609108
:101C1000630C7091640C8FE095E08EDD8091C000C4
:101C200085FFFCCF8AE08093C600EDE0F5E084916B
:101C3000882341F09091C00095FFFCCF8093C600AF
:101C40003196F5CF8091C00085FFFCCF8AE080936C
:101C5000C600EFEFF4E08491882341F09091C0003A
:101C600095FFFCCF8093C6003196F5CF8091C000E0
:101C700085FFFCCF8AE08093C60040911502509109
:101C80001602609117027091180287EF94E054DDFC
:101C90004091190250911A0260911B0270911C022E
:101CA00084EF94E049DD8091C00085FFFCCF8AE09D
:101CB0008093C600E2EFF4E08491882341F0909194
:101CC000C00095FFFCCF8093C6003196F5CF809180
:101CD000C00085FFFCCF8AE08093C600EEEDF4E003
:101CE0008491882341F09091C00095FFFCCF8093B0
:101CF000C6003196F5CF8091C00085FFFCCF8AE009
:101D00008093C60040911C0750911D0760911E07EB
:101D100070911F0786ED94E00FDD409120075091F0
:101D20002107609122077091230783ED94E004DD81
:101D30008091C00085FFFCCF8AE08093C600E1ED72
:101D4000F4E08491882341F09091C00095FFFCCF8E
:101D50008093C6003196F5CF8091C00085FFFCCFFF
:101D60008AE08093C600EEEBF4E08491882341F092
:101D70009091C00095FFFCCF8093C6003196F5CFBF
:101D80008091C00085FFFCCF8AE08093C60040911F
:101D9000630650916406609165067091660686EB55
:101DA00094E020DA409167065091680660916906D8
:101DB00070916A0683EB94E015DA8091C00085FF8C
:101DC000FCCF8AE08093C600E1EBF4E084918823A5
:101DD00041F09091C00095FFFCCF8093C6003196F2
:101DE000F5CF8091C00085FFFCCF8AE08093C600CC
:101DF000E5EAF4E08491882341F09091C00095FFDA
:101E0000FCCF8093C6003196F5CF8091C00085FF4E
:101E1000FCCF8AE08093C6004091000750910107F3
:101E200060910207709103078DE994E085DC809151
:101E3000C00085FFFCCF8AE08093C600EBE9F4E0A8
:101E40008491882341F09091C00095FFFCCF80934E
:101E5000C6003196F5CF8091C00085FFFCCF8AE0A7
:101E60008093C600E3E8F4E08491882341F09091E8
:101E7000C00095FFFCCF8093C6003196F5CF8091CE
:101E8000C00085FFFCCF8AE08093C60040914402E9
:101E90005091450260914602709147028DE794E0AF
:101EA0004BDC409148025091490260914A02709186
:101EB0004B028AE794E040DC8091C00085FFFCCFB4
:101EC0008AE08093C6000895CF93DF93CDB7DEB745
:101ED00068970FB6F894DEBF0FBECDBF84E690E0E2
:101EE000988F8F8B86E591E3A3E3B0E089839A8393
:101EF000AB83BC8344E0BE016B5F7F4FCE0147964E
:101F000082D943E050E0BE016B5F7F4FCE01019666
:101F10000E94A260892B09F0FCC040E16DE57CE0E5
:101F2000CE01479670D940E16CE177E0CE0147964B
:101F30006AD940E163E676E0CE01479664D90E9413
:101F4000CF2F44E064E177E0CE0147965CD944E0CE
:101F500068E177E0CE01479656D944E06CE277E03D
:101F6000CE01479650D944E060E377E0CE01479632
:101F70004AD944E06FE576E0CE01479644D948E07F
:101F800064E472E0CE0147963ED944E060E077E039
:101F9000CE01479638D944E06CEF76E0CE01479603
:101FA00032D944E068EF76E0CE0147962CD94CE078
:101FB0006AE876E0CE01479626D944E061E172E016
:101FC000CE01479620D944E06DE072E0CE014796FD
:101FD0001AD944E063ED74E0CE01479614D944E089
:101FE0006FEC74E0CE0147960ED94CE065E172E0EB
:101FF000CE01479608D94CE06CE472E0CE014796DA
:1020000002D942E0BE016B5E7F4FCE014796FBD8FE
:1020100042E0BE016D5E7F4FCE014796F4D842E0AC
:10202000BE016F5E7F4FCE014796EDD842E0BE0104
:10203000615F7F4FCE014796E6D842E0BE01635F05
:102040007F4FCE014796DFD842E0BE01655F7F4FEC
:10205000CE014796D8D844E06BEC74E0CE014796A9
:10206000D2D844E069E372E0CE014796CCD844E090
:1020700065E372E0CE014796C6D844E061E372E0C2
:10208000CE014796C0D842E0BE01675F7F4FCE01C8
:102090004796B9D84CE061E072E0CE014796B3D8DC
:1020A00041E063E776E0CE014796ADD844E06FE3C8
:1020B00072E0CE014796A7D80E94A0350E94E32780
:1020C000E6E3F5E08491882341F09091C00095FF0C
:1020D000FCCF8093C6003196F5CF8091C00085FF7C
:1020E000FCCF8AE08093C600E7E2F5E08491882384
:1020F00041F09091C00095FFFCCF8093C6003196CF
:10210000F5CF8091C00085FFFCCF8AE08093C600A8
:1021100001C05CDB45DD68960FB6F894DEBF0FBEEC
:10212000CDBFDF91CF910895269A2E9882E08093BB
:10213000C0001092C50080E18093C4008091C1006E
:1021400080618093C1008091C10088608093C1004C
:102150008091C10080688093C100E8EFF5E0849130
:10216000882341F09091C00095FFFCCF8093C6007A
:102170003196F5CF8091C00085FFFCCF8AE0809337
:10218000C600E7EDF5E08491882341F09091C0000E
:1021900095FFFCCF8093C6003196F5CF8091C000AB
:1021A00085FFFCCF8AE08093C600E5EDF5E08491E1
:1021B000882341F09091C00095FFFCCF8093C6002A
:1021C0003196F5CF8091C00085FFFCCF8AE08093E7
:1021D000C60084B780FF14C0EDECF5E0949199231C
:1021E00041F02091C00025FFFCCF9093C6003196AE
:1021F000F5CF9091C00095FFFCCF9AE09093C60078
:1022000081FF14C0EDEBF5E09491992341F020910A
:10221000C00025FFFCCF9093C6003196F5CF90917A
:10222000C00095FFFCCF9AE09093C60082FF14C0D7
:10223000ECEAF5E09491992341F02091C00025FF4C
:10224000FCCF9093C6003196F5CF9091C00095FFDA
:10225000FCCF9AE09093C60083FF14C0ECE9F5E050
:102260009491992341F02091C00025FFFCCF9093D9
:10227000C6003196F5CF9091C00095FFFCCF9AE053
:102280009093C60085FF14C0ECE8F5E084918823A4
:1022900041F09091C00095FFFCCF8093C60031962D
:1022A000F5CF8091C00085FFFCCF8AE08093C60007
:1022B00014BEE1E8F5E08491882341F09091C000DC
:1022C00095FFFCCF8093C6003196F5CFE3E7F5E0AC
:1022D0008491882341F09091C00095FFFCCF8093BA
:1022E000C6003196F5CF8091C00085FFFCCF8AE013
:1022F0008093C600E1E7F5E08491882341F0909156
:10230000C00095FFFCCF8093C6003196F5CF809139
:10231000C00085FFFCCF8AE08093C600E7E6F5E0C9
:102320008491882341F09091C00095FFFCCF809369
:10233000C6003196F5CFE4E6F5E08491882341F0BC
:102340009091C00095FFFCCF8093C6003196F5CFE9
:10235000E8E5F5E08491882341F09091C00095FF75
:10236000FCCF8093C6003196F5CFEBE4F5E0849185
:10237000882341F09091C00095FFFCCF8093C60068
:102380003196F5CFE9E4F5E08491882341F090910E
:10239000C00095FFFCCF8093C6003196F5CF8091A9
:1023A000C00085FFFCCF8AE08093C6001092EE0645
:1023B0001092EF061092F0061092F10685DD109251
:1023C0007D0C10927E0C10927F0C1092800C20914C
:1023D000350230913602409137025091380260E068
:1023E00070E08FE793E40E94625E6093790C7093D3
:1023F0007A0C80937B0C90937C0C1092E6061092E2
:10240000E7061092E8061092E90620912502309125
:102410002602409127025091280260E070E08FE789
:1024200093E40E94625E6093750C7093760C8093C7
:10243000770C9093780C249A8091010180628093AC
:1024400001018091010180648093010187ED8093F7
:102450007A0010927E0010927D0080917D00806253
:1024600080937D0080917D00806880937D008091C5
:102470007D00806480937D0080E888BD80916E003F
:10248000846080936E006AEF70E080E090E00E94CC
:10249000AD2310920E0C10920D0C80E1EDE4FCE0E7
:1024A000DF011D928A95E9F71092390C10923A0CCF
:1024B00010923B0C10923C0C10923D0C10923E0C72
:1024C00010923F0C1092400C1092410C1092420C52
:1024D0001092430C1092440C1092450C1092460C32
:1024E0001092470C1092480C1092490C10924A0C12
:1024F00010924B0C10924C0C819A879A80910A0191
:10250000826080930A010E9A3B9A579A5F9A829A48
:102510008A9A809107018160809307019FB7F894A0
:10252000809108018160809308019FBF0A9A129AE6
:102530003F9A479A6D98759A809104018D7F809398
:1025400004019FB7F8948091050182608093050192
:102550009FBF53985B9A6C98749A809104018E7F08
:10256000809304019FB7F894809105018160809366
:1025700005019FBF52985A9A809A88985F9A109244
:102580000A0C869A8E988A9A10920B0C80910A01F6
:10259000886080930A019FB7F89480910B01877F30
:1025A00080930B019FBF9FB7F894809108018160D1
:1025B000809308019FBF10920C0C0C9A1498129AE9
:1025C000399A4198809181008F7E8093810080911B
:1025D0008100886080938100809180008D7F80934E
:1025E0008000809180008E7F8093800080918000A9
:1025F0008F7380938000809180008F7C8093800017
:1026000080918100887F82608093810080E090E4E7
:102610009093890080938800109285001092840026
:1026200080916F00826080936F0081E08093000250
:1026300078946BE070E081E896E00E943C3366E0BD
:1026400070E084E896E00E943C3365E070E087E843
:1026500096E00E943C33BFEF23ED80E3B150204071
:102660008040E1F700C000000895EF92FF921F93B1
:10267000CF93DF937C01C62FD72F142F160F6991AC
:10268000F701808191810E940B5DF701808191812A
:102690000196918380831C13F2CFDF91CF911F911C
:1026A000FF90EF9008954F925F926F927F928F927A
:1026B0009F92AF92BF92EF92FF920F931F93CF938F
:1026C000DF93CDB7DEB7A0970FB6F894DEBF0FBE8D
:1026D000CDBF611571058105910541F48091C00060
:1026E00085FFFCCF80E38093C6003DC09E012F5F35
:1026F0003F4F7901812C912C54018901442E512C9A
:10270000612C712C3FEF831A930AA30AB30AA30129
:1027100092010E94285DF70161937F01B901CA010E
:10272000611571058105910569F7A40120E030E08C
:10273000F1E08F1A9108A108B108F401E21BF30B34
:10274000E00FF11F80818A3010F4805D01C0895C48
:102750009091C00095FFFCCF8093C6002F5F3F4F44
:102760002417350751F7A0960FB6F894DEBF0FBEB9
:10277000CDBFDF91CF911F910F91FF90EF90BF9050
:10278000AF909F908F907F906F905F904F90089543
:1027900097FF0EC02091C00025FFFCCF2DE22093B3
:1027A000C60090958095709561957F4F8F4F9F4F94
:1027B0004AE079CF8F929F92AF92BF92CF92DF92F1
:1027C000EF92FF92CF93DF936B017C01C42F20E047
:1027D00030E0A9010E94015A87FF0BC08091C00020
:1027E00085FFFCCF8DE28093C600F7FAF094F7F8EE
:1027F000F094D0E060E070E080E09FE3DC1741F00F
:1028000020E030E040E251E40E94625EDF5FF6CFFC
:102810009B01AC01C701B6010E94865D6B017C0182
:102820000E94CF5E4B015C010E94055A9B01AC01E6
:10283000C701B6010E94855D6B017C014AE0C501BC
:10284000B40131DFCC2361F0E8EAF3E08191882321
:1028500039F09091C00095FFFCCF8093C600F6CF71
:10286000CC2309F120E030E040E251E4C701B60199
:102870000E9456564B015C010E94CA5E6B01770FA5
:10288000EE08FF08C701B60183DFC701B6010E9449
:10289000075A9B01AC01C501B4010E94855D6B0123
:1028A0007C01C150DDCFDF91CF91FF90EF90DF90A1
:1028B000CF90BF90AF909F908F900895BC0180E023
:1028C00090E04AE0F0DE8091C00085FFFCCF8DE013
:1028D0008093C6008091C00085FFFCCF8AE0809382
:1028E000C6000895CF92DF92EF92FF920F931F934D
:1028F000CF93DF936B017A010DE51CE0F801208195
:10290000318142815381FC01608171818281938197
:102910000E9456560E94BC5FCDE4DCE06883798358
:102920008A839B83F8012481358146815781F60192
:1029300060817181828193810E9456560E94BC5FA2
:102940006C837D838E839F83F8012085318542854A
:102950005385F70160817181828193810E9456566F
:102960000E94BC5F688779878A879B87F8012485E6
:102970003585468557856091350C7091360C809170
:10298000370C9091380C0E9456560E94BC5F6C87A1
:102990007D878E879F878FB7F894488159816A8198
:1029A0007B81E9E1FCE040835183628373834C8146
:1029B0005D816E817F8144835583668377834885FB
:1029C00059856A857B8540875187628773874C85E7
:1029D0005D856E857F8544875587668777878FBF3E
:1029E0001092490C10924A0C10924B0C10924C0C05
:1029F000E9E3FCE0108211821282138214821582B4
:102A00001682178210861186128613861486158602
:102A100016861786DF91CF911F910F91FF90EF904F
:102A2000DF90CF9008954F925F926F927F928F9236
:102A30009F92AF92BF92CF92DF92EF92FF920F934D
:102A40001F93CF93DF938091170C9091180C0397ED
:102A500014F40E9445090E94E523C090130CD09005
:102A6000140CE090150CF090160C00910F0C1091C6
:102A7000100C2091110C3091120CDC01CB018C193F
:102A80009D09AE09BF09081719072A073B0730F44B
:102A9000012B022B032B11F00E94A93680907002AB
:102AA00090907102A0907202B09073028114910410
:102AB000A104B104A1F00E94E523DC01CB018C1933
:102AC0009D09AE09BF0988169906AA06BB0638F407
:102AD00090910E0C80910D0C981709F416C160911D
:102AE000080C90910D0C80910E0C981781F080913C
:102AF0000D0C9DE4899FF0011124E058F84F60818E
:102B000090910E0C891719F08F5F8F70F9CF70E0DC
:102B100089E00E94E62280913707882309F407C1E3
:102B2000C0906C02D0906D02E0906E02F0906F0247
:102B30006091350770913607072E000C880B990BB2
:102B40000E94075A20E030E040E050E40E94865D99
:102B50009601A7010E94015A87FDE9C0C0910D0CA2
:102B6000912CA12CB12CD0E08DE4882E80910E0CFC
:102B7000C81709F456C08C2F90E0889EF001899EFA
:102B8000F00D1124E85CF84F40815181628173811E
:102B9000452B462B472B81F44481558166817781F3
:102BA000452B462B472B41F4408551856285738523
:102BB000452B462B472B91F1889E8001899E100D55
:102BC0001124085C184FF801648575858685978502
:102BD0000E94075A2B013C01F801608971898289A2
:102BE00093890E94055A9B01AC01C301B2010E9466
:102BF000625EF80122A133A144A155A10E9456565C
:102C00003B018C01292D3A2D4B2D5D2F0E94B15F88
:102C1000181624F4962CA72CB02ED12FCF5FCF708E
:102C2000A5CF209168023091690240916A025091CB
:102C30006B02692D7A2D8B2D9D2F0E9456569B017C
:102C4000AC01B601C7010E94865D8B01D82FC92F48
:102C50009601A7010E94015A87FF03C08601DE2D5D
:102C6000CF2DC0906402D0906502E0906602F09093
:102C700067029601A701B8018D2F9C2F0E94B15FBA
:102C800018161CF48601DE2DCF2DC090710CD0904B
:102C9000720CE090730CF090740C98014D2F5C2F27
:102CA000C701B6010E94B15F1816D4F420E037EDD9
:102CB00043EA5CE3B8018D2F9C2F0E9456564B01CE
:102CC0005C0128E431EE4AE75FE3C701B6010E94E8
:102CD0005656A50194010E94865D8B01D82FC92FFD
:102CE000C801AD2FBC2F8093710C9093720CA093F0
:102CF000730CB093740CB8018D2F9C2F0E94CA5E88
:102D0000709336076093350712C05F9A10920A0CD1
:102D10008A9A10920B0C9FB7F894809108018160F9
:102D2000809308019FBF10920C0C129AD8CEDF91AD
:102D3000CF911F910F91FF90EF90DF90CF90BF90B8
:102D4000AF909F908F907F906F905F904F9008957D
:102D50002F923F924F925F926F927F928F929F92AB
:102D6000AF92BF92CF92DF92EF92FF920F931F9399
:102D7000CF93DF93CDB7DEB7C257D1090FB6F89422
:102D8000DEBF0FBECDBF3C014B015A016901EBA272
:102D9000FBA60CA71DA780910E0C8F5F6B968FAFC3
:102DA0006B97803119F46B961FAE6B976B962FADB6
:102DB0006B97022F220F110B80910D0C90E0801762
:102DC000910721F40E9430262EDEF6CF20915D0C73
:102DD00030915E0C40915F0C5091600CD3016D916D
:102DE0007D918D919C910E9456560E94BC5F6F967A
:102DF0006CAF7DAF8EAF9FAF6F972091610C30911C
:102E0000620C4091630C5091640CF40160817181FB
:102E1000828193810E9456560E94BC5FA3966CAF3C
:102E20007DAF8EAF9FAFA3974090650C5090660C1E
:102E30006090670C7090680CD5012D913D914D917B
:102E40005C91C301B2010E9456560E94BC5FA796D6
:102E50006CAF7DAF8EAF9FAFA7972091690C30917B
:102E60006A0C40916B0C50916C0CF6016081718181
:102E7000828193810E9456560E94BC5FAB966CAFD4
:102E80007DAF8EAF9FAFAB97E0910E0C2E2E312C05
:102E90002DE4E29FF0011124EC57F84F108280914D
:102EA0004D0C90914E0CA0914F0CB091500C8AABF0
:102EB0009BABACABBDAB6F968CAC9DACAEACBFACC2
:102EC0006F97881A990AAA0ABB0AB7FE08C0B0947D
:102ED000A09490948094811C911CA11CB11C8DE441
:102EE000829DF001839DF00D1124E85CF84F8082F3
:102EF0009182A282B3822091510C3091520C409168
:102F0000530C5091540C2EAB3FAB48AF59AFA39626
:102F1000CCACDDACEEACFFACA397C21AD30AE40A8A
:102F2000F50AF7FE08C0F094E094D094C094C11C58
:102F3000D11CE11CF11C8DE4829DF001839DF00DFC
:102F40001124E85CF84FC482D582E682F782809132
:102F5000550C9091560CA091570CB091580C8EA71F
:102F60009FA7A8ABB9ABA7966CAD7DAD8EAD9FAD5D
:102F7000A7972EA53FA548A959A9621B730B840BDF
:102F8000950B97FF07C090958095709561957F4F41
:102F90008F4F9F4F0E94075A6FA378A789A79AA7C0
:102FA00020E030E044E353E4C301B2010E945656EE
:102FB0006AAF7BAF8CAF9DAF9B01AC016FA178A5D1
:102FC00089A59AA50E94B15F181604F58DE4829D2B
:102FD0008001839D100D1124085C184F20E030E023
:102FE00044EB53E4C301B2010E9456562FA138A509
:102FF00049A55AA50E94855D0E94CA5ED80118960F
:103000006D937D938D939C931B9713C08DE4829D4C
:103010008001839D100D1124085C184F6FA178A5C5
:1030200089A59AA50E94CA5EF80160877187828788
:1030300093874090590C50905A0C60905B0C7090A4
:103040005C0C10913407AB966CAD7DAD8EAD9FAD31
:10305000AB97641975098609970997FF07C0909582
:103060008095709561957F4F8F4F9F4F0E94075AB3
:1030700024E0129FF0011124E05AFD4F208131819C
:10308000428153810E9456560E94CA5E9B01AC0148
:10309000A0915E02B0915F020E94705D24E630E074
:1030A00040E050E00E944A5DFA018DE4829DD0012B
:1030B000839DB00D1124A85CB84F1C962C931C97CF
:1030C0001D963C931D971E964C931E971F96FC933E
:1030D0001F9718964D915D916D917C911B97C90139
:1030E000DF0184179507A607B70714F4DB01CA01AF
:1030F000B501A4018C159D05AE05BF0544F08816E9
:103100009906AA06BB0654F4AC01BD0107C08C1495
:103110009D04AE04BF0414F4B701A6018DE4829DA2
:10312000F001839DF00D1124E85CF84F408B518B2A
:10313000628B738B463051056105710514F40C9454
:10314000BE21DF01A85BBF4F4091080C5091090CD4
:10315000052E000C660B770B4D935D936D937C935E
:1031600013976F968CAD9DADAEADBFAD6F972AA98D
:103170003BA94CA95DA982179307A407B50714F0D2
:1031800010A202C081E080A3A3968CAD9DADAEAD30
:10319000BFADA3972EA93FA948AD59AD821793079C
:1031A000A407B5075CF48DE4829DF001839DF00DCA
:1031B0001124E85CF84F80A1826080A36FA178A5FC
:1031C00089A59AA50E94CA5E97FF07C09095809531
:1031D000709561957F4F8F4F9F4F0E94075A2AAD80
:1031E0003BAD4CAD5DAD0E94B15F181684F4A7965F
:1031F0008CAD9DADAEADBFADA7972EA53FA548A99F
:1032000059A9281739074A075B07DCF40FC0A796AE
:103210008CAD9DADAEADBFADA7972EA53FA548A97E
:1032200059A982179307A407B5075CF48DE4829D22
:10323000F001839DF00D1124E85CF84F80A18460BB
:1032400080A3AB968CAD9DADAEADBFADAB978415F5
:103250009505A605B7055CF48DE4829DF001839D7C
:10326000F00D1124E85CF84F80A1886080A38DE404
:10327000829DF001839DF00D1124E85CF84F11A3AD
:1032800089288A288B2809F05F988DE4829DF001B7
:10329000839DF00D1124E85CF84F84819581A6810F
:1032A000B781892B8A2B8B2B09F08A988DE4829D1C
:1032B000F001839DF00D1124E85CF84F8085918525
:1032C000A285B385892B8A2B8B2B41F09FB7F8946D
:1032D000809108018E7F809308019FBF8DE4829DBD
:1032E000F001839DF00D1124E85CF84F84859585ED
:1032F000A685B785892B8A2B8B2B69F180916E0C63
:10330000882319F0815080936E0C80916F0C882374
:1033100019F0815080936F0C8091700C882319F004
:1033200081508093700C80913407813061F030F0CF
:10333000823089F480E28093700C08C0129880E299
:1033400080936E0C08C080E280936F0C80916E0CAD
:10335000811101C0129A8DE4829DF001839DF00DD0
:103360001124E85CF84F24853585468557852296DB
:103370002CAF3DAF4EAF5FAF2297232B242B252BD5
:1033800049F4E0903007F090310700913207109136
:10339000330708C0E0902C07F0902D0700912E070E
:1033A00010912F079701A8016BA17BA58CA59DA566
:1033B0000E94015A87FF04C0EBA2FBA60CA71DA721
:1033C00080914D0C90914E0CA0914F0CB091500CEF
:1033D0006F962CAD3DAD4EAD5FAD6F97281B390B91
:1033E0004A0B5B0BCA01B9010E94075A20915D0C80
:1033F00030915E0C40915F0C5091600C0E94625EB7
:103400006FA378A789A79AA7698B7A8B8B8B9C8BE4
:103410008091510C9091520CA091530CB091540C8E
:10342000A3962CAD3DAD4EAD5FADA397281B390BD8
:103430004A0B5B0BCA01B9010E94075A2091610C2B
:103440003091620C4091630C5091640C0E94625E5A
:103450004B015C016D8B7E8B8F8B988F8DE4829DF1
:103460008001839D100D1124085C184FD801189617
:103470008D919D910D90BC91A02D8AAB9BABACAB77
:10348000BDABBC01CD010E94075A26966CAF7DAF43
:103490008EAF9FAF26972091650C3091660C4091BE
:1034A000670C5091680C0E94625E6B017C01698F11
:1034B0007A8F8B8F9C8F8091590C90915A0CA09190
:1034C0005B0CB0915C0CAB962CAD3DAD4EAD5FADE1
:1034D000AB97281B390B4A0B5B0BCA01B9010E9441
:1034E000075A2091690C30916A0C40916B0C5091F5
:1034F0006C0C0E94625EE091340734E0E39FF001BF
:103500001124E05AFD4F20813181428153810E9474
:1035100056562B013C0160915E0270915F02072EAE
:10352000000C880B990B0E94075A9B01AC01C30148
:10353000B2010E94565620E030E048EC52E40E946E
:10354000625E6D8F7E8F8F8F98A3D8012D913D91F4
:103550004D915C9113972EAB3FAB48AF59AF2630DE
:10356000310541055105F4F414964D905D906D9030
:103570007C901797B6E04B1651046104710494F4E3
:103580002AA93BA94CA95DA9263031054105510561
:103590004CF4DC01CB01BF77F80186A797A7A0AB5D
:1035A000B1AB2CC06FA178A589A59AA50E945356EE
:1035B0002B013C01C501B4010E9453569B01AC0193
:1035C000C301B2010E94865D4B015C01C701B601D7
:1035D0000E9453569B01AC01C501B4010E94865D57
:1035E0000E94FA5F2DE4229DF001239DF00D11242D
:1035F000E85CF84F66A777A780AB91AB8DE4829D1E
:103600008001839D100D1124085C184FD8019E96EF
:103610008D909D90AD90BC90D197A501940160E0F4
:1036200070E080E89FE30E94625E9B01AC016BA1A9
:103630007BA58CA59DA50E9456562B013C0180912F
:103640000E0C20910D0C90E0821B9109FC01EF7093
:10365000FF27E196FFAFEEAFE197A3019201C5010D
:10366000B4010E9456562A966CAF7DAF8EAF9FAFC5
:103670002A97D80192966D937D938D939C939597FD
:1036800050966D917D918D919C9153970E94055A12
:103690006BA37CA38DA39EA3A30192010E94565607
:1036A0000E944C5E0E94CF5E2E966CAF7DAF8EAFB7
:1036B0009FAF2E97F80160AF71AF82AF93AF9E01BD
:1036C0002F5E3F4F3BAF2AAFAE014F5F5F4F5FA70B
:1036D0004EA78CE197E068969FAF8EAF6897DE01AA
:1036E0009196BAA3A9A364965FAF4EAF64971BA649
:1036F0001CA6B0E8BDA7EFE3EFA3AAADBBAD6D91EB
:103700007D918D919D91BBAFAAAFA30192010E94C3
:1037100056566496EEADFFAD6497619371938193B5
:1037200091936496FFAFEEAF64976B017C01E894D0
:10373000F7F86896AEADBFAD68972D913D914D916C
:103740005D916896BFAFAEAF689762962CAF3DAF04
:103750004EAF5FAF6297C701B6010E94B15F181606
:10376000D4F4A701960162966CAD7DAD8EAD9FAD90
:1037700062970E94625E7B018C019B01AC016BA58C
:103780007CA58DA59FA10E94015A87FD04C0EBA6D0
:10379000FCA60DA71FA3EAADFBAD29A13AA1E21734
:1037A000F30709F0AACF20E030E040E85FE36BA523
:1037B0007CA58DA59FA10E94015A87FF4AC08E015A
:1037C0000F5E1F4F2BA53CA54DA55FA1AEA5BFA5C4
:1037D0006D917D918D919C910E945656EEA5FFA50D
:1037E0006193719381939193FFA7EEA7E017F1077F
:1037F00049F78DE4829D8001839D100D1124085CA2
:10380000184F2BA53CA54DA55FA12A966CAD7DADAB
:103810008EAD9FAD2A970E945656D80192966D9311
:103820007D938D939C9395972E966CAD7DAD8EADCB
:103830009FAD2E970E94055A2BA53CA54DA55FA1D3
:103840000E9456560E94CF5EF80160AF71AF82AF02
:1038500093AFA50194016BA17CA18DA19EA10E94B3
:10386000625E6B017C012EA93FA948AD59AD232BA7
:10387000242B252B91F58DE4829D8001839D100DD5
:103880001124085C184FF80184819581A681B781C5
:10389000892B8A2B8B2B09F52AA93BA94CA95DA959
:1038A000232B242B252BC9F42091180730911907BD
:1038B00040911A0750911B07C701B6010E94565646
:1038C0000E944C5E0C5B1F4F0E94CF5ED8016D932F
:1038D0007D938D939C93139718C120911407309179
:1038E00015074091160750911707C701B6010E94AE
:1038F00056560E944C5E0E94CF5E2DE4229D8001B0
:10390000239D100D11240458184FF8016083718312
:10391000828393838090040790900507A090060708
:10392000B09007070E94055A2B013C016EA97FA9A0
:1039300088AD99AD0E94075A9B01AC01C301B20149
:103940000E9456562BA13CA14DA15EA10E94625E31
:103950002B013C01C501B4010E94055A9B01AC0139
:10396000C301B2010E94B15F181634F4D8018D92E0
:103970009D92AD92BC921397409008075090090712
:1039800060900A0770900B072DE4229DC001239DD3
:10399000900D11249C01285C384F89010C5B1F4F4E
:1039A000F8016081718182819381E2962FAFE29765
:1039B000E3963FAFE3970E94055A4B015C01E29604
:1039C0002FADE297E3963FADE397D90114966D9141
:1039D0007D918D919C9117970E94075A9B01AC0194
:1039E000C501B4010E9456562BA13CA14DA15EA178
:1039F0000E94625E4B015C01C301B2010E94055A44
:103A00009B01AC01C501B4010E94B15F18162CF4F2
:103A1000F8014082518262827382809010079090F8
:103A20001107A0901207B09013078DE4829D8001CA
:103A3000839D100D11240458184FD8016D917D916C
:103A40008D919C910E94055A2B013C0122966CADF0
:103A50007DAD8EAD9FAD22970E94075A9B01AC01B0
:103A6000C301B2010E9456562BA13CA14DA15EA1FB
:103A70000E94625E2B013C01C501B4010E94055AFF
:103A80009B01AC01C301B2010E94B15F18162CF476
:103A9000F80180829182A282B38280900C0790907C
:103AA0000D07A0900E07B0900F078DE4829D800156
:103AB000839D100D11240458184FD8016D917D91EC
:103AC0008D919C910E94055A26962CAD3DAD4EAD30
:103AD0005FAD26970E9456562BA13CA14DA15EA139
:103AE0000E94625E2B013C01C501B4010E94055A8F
:103AF0009B01AC01C301B2010E94B15F18162CF406
:103B0000F80180829182A282B3828DE4829D80013D
:103B1000839D100D1124085C184FF801EC5BFF4FDA
:103B200060817181828193810E94055A4B015C0101
:103B3000A70196010E94625E66966CAF7DAF8EAF64
:103B40009FAF6697D801D2966D937D938D939C938A
:103B5000D5972DEB37E346E051E4C501B4010E944F
:103B600056560E94CA5EF801648F758F868F978FB4
:103B7000C0900007D0900107E0900207F090030783
:103B800020E030E040E05FE3C701B6010E945656F6
:103B90006BA37BA78CA79DA729853A854B855C8560
:103BA0006A962CAF3DAF4EAF5FAF6A978091FC062F
:103BB0009091FD06A091FE06B091FF062E968CAF67
:103BC0009DAFAEAFBFAF2E9720E030E040E05FE3A7
:103BD000BC01CD010E9456565B018C016A966CAD0A
:103BE0007DAD8EAD9FAD6A979F779501A8010E942C
:103BF000B15F181674F49501A8016BA17BA58CA583
:103C00009DA50E94015A87FD04C0ABA2BBA60CA7CC
:103C10001DA72D853E854F855889AF962CAF3DAFAA
:103C20004EAF5FAFAF978091F8069091F906A091E3
:103C3000FA06B091FB0662968CAF9DAFAEAFBFAFF8
:103C4000629720E030E040E05FE3BC01CD010E94DC
:103C500056565B018C01AF966CAD7DAD8EAD9FADC0
:103C6000AF979F779501A8010E94B15F181674F471
:103C70009501A8016BA17BA58CA59DA50E94015A69
:103C800087FD04C0ABA2BBA60CA71DA78DE4829D37
:103C9000F001839DF00D1124E85CF84F92A19AAFDA
:103CA000A3A1AEAFB4A12396BFAF239725A12796BA
:103CB0002FAF2797292F3A2F4B2F27965FAD2797A6
:103CC0006BA17BA58CA59DA50E94015A87FD0CC008
:103CD0003AAD3BA34EAD4BA723965FAD23975CA7B0
:103CE00027968FAD27978DA7E196AEADBFADE19733
:103CF00012970CF4EDC0B091490CBFA3E0914A0CAF
:103D0000EEA7F0914B0CFAAB20914C0C2EAB27E1B7
:103D100037EB41ED58E36B2F7E2F8F2F9EA90E942A
:103D2000B15F18160CF0DDC02091390C30913A0CBF
:103D300040913B0C50913C0C69817A818B819C8134
:103D40000E94855D2B013C0120913D0C30913E0C81
:103D500040913F0C5091400C6D817E818F81988500
:103D60000E94855D4B015C01A3019201C301B20178
:103D70000E9456562B013C01A5019401C501B401D6
:103D80000E9456569B01AC01C301B2010E94865DA0
:103D90000E94FA5F4B015C01A70196010E94B15F8E
:103DA00018164CF4A5019401C701B6010E94625E89
:103DB0007B018C0104C0E12CF12C00E81FE3209171
:103DC000410C3091420C4091430C5091440C6A9646
:103DD0006CAD7DAD8EAD9FAD6A970E94855D4B0148
:103DE0005C01E894B7F82E962CAD3DAD4EAD5FADBD
:103DF0002E97C501B4010E94B15F1816B4F4A50155
:103E000094012E966CAD7DAD8EAD9FAD2E970E9428
:103E1000625E5B016C019B01AC01B701C8010E94AD
:103E2000015A87FD02C0750186012091450C309131
:103E3000460C4091470C5091480CAF966CAD7DAD4F
:103E40008EAD9FADAF970E94855D4B015C01E894FC
:103E5000B7F862962CAD3DAD4EAD5FAD6297C50132
:103E6000B4010E94B15F1816B4F4A50194016296E2
:103E70006CAD7DAD8EAD9FAD62970E94625E5B01C1
:103E80006C019B01AC01B701C8010E94015A87FD7A
:103E900002C0750186019701A8016AAD7EAD239627
:103EA0008FAD239727969FAD27970E9456567B018B
:103EB0008C019B01AC016FA17EA58AA99EA90E94DD
:103EC000015A87FD16C0EFA2FEA60AAB1EAB11C0B9
:103ED0003BA13FA34BA54EA75CA55AAB8DA58EABCE
:103EE00008C09BA19FA3ABA5AEA7BCA5BAABEDA58F
:103EF000EEAB8DE4829D8001839D100D1124085C42
:103F0000184F8FA19EA5AAA9BEA9F80182A793A7C1
:103F1000A4A7B5A766966CAD7DAD8EAD9FAD669737
:103F200090589B01AC010E94865DD8019E962D9110
:103F30003D914D915C91D1970E9456569B01AC01E9
:103F40006BE077ED83E29BE30E94855D0E94FA5F60
:103F5000B62EC72E7C01262F372FAC016FA17EA570
:103F60008AA99EA90E94015A87FD05C0DB2C8C2CD2
:103F7000AE2C9F2C04C0DFA08EA4AAA89EA88DE41E
:103F8000829D8001839D100D1124085C184F8D2D9A
:103F9000982DAA2DB92DF80186A397A3A0A7B1A7A4
:103FA0002B2D3C2DA7016AAD7EAD23968FAD2397B7
:103FB00027969FAD27970E94015A18162CF081E092
:103FC000D801D7968C9302C0F80117AA2DE4229D40
:103FD000C001239D900D11249C01285C384F79016C
:103FE00081E0D901D6968C9380E1FE013196A9E358
:103FF000BCE001900D928A95E1F78AAD9EAD2396C3
:10400000AFAD23972796BFAD27978093490C909328
:104010004A0CA0934B0CB0934C0C9C01AD016BA1CE
:104020007BA58CA59DA50E94625E2B013C012AAD5B
:104030003EAD23964FAD239727965FAD27976D2D05
:10404000782D8A2D992D0E94625EAB01BC019301EF
:104050008201C7010E9417306B96BFAD6B97B0937A
:104060000E0C6F962CAD3DAD4EAD5FAD6F972093AE
:104070004D0C30934E0C40934F0C5093500CA39624
:104080008CAD9DADAEADBFADA3978093510C909319
:10409000520CA093530CB093540CA7962CAD3DAD8D
:1040A0004EAD5FADA7972093550C3093560C4093BF
:1040B000570C5093580CAB968CAD9DADAEADBFADCB
:1040C000AB978093590C90935A0CA0935B0CB093D0
:1040D0005C0C80910E0C8FB7F89460900D0C8FBF24
:1040E00080910E0C90E0861991098F7099270497A2
:1040F0004CF410910D0CF12C00E080E090E02DE4E8
:10410000E22EA0C080910E0C83508F70F82EA12C4F
:10411000B12C00E010E09DE4492E55245394F61490
:1041200041F38F2DF11001C080E1FF24FA94F80EC5
:104130004F9CC0011124DC01A85CB84FBCA3ABA309
:104140000115110509F469C0A114B10409F465C091
:10415000F80172A4C3A4D4A4E5A4272D3C2D4D2DB1
:104160005E2D66A177A180A591A50E94015A8823A2
:1041700009F453C0D801D7968C91811144C0F50140
:1041800086A097A0A0A4B1A4A5019401672D7C2DC1
:104190008D2D9E2D0E94B15F1816ACF5A5019401DE
:1041A000C501B4010E9456564B015C01F80182A979
:1041B00093A9A4A9B5A9BC01CD0190589B01AC015C
:1041C0000E94865DD8019E962D913D914D915C9106
:1041D000D1970E9456569B01AC01C501B4010E94C3
:1041E000855D0E94FA5F1B015C019B01AC01672D9C
:1041F0007C2D8D2D9E2D0E94015A87FD04C0722CAE
:10420000C32CDA2CEB2C872D9C2DAD2DBE2DF80167
:1042100086A397A3A0A7B1A756AA58010BA11CA1DA
:104220007ECFE19E90011124F901E85CF84F6F0107
:10423000009769F41F5F103109F410E08F2D902F63
:10424000FC2C0D2D20910E0C1213EBCF0AC0DC01BB
:10425000D7962C912111EECF6F2D702F0E94602FD9
:10426000E9CF009741F0FC0127A9211104C06F2D6F
:10427000702F0E94602FD0900D0CE12CF12C8DE45A
:10428000C82E4D2D0D2C000C550B80910E0C90E07E
:104290004817590709F447C0C49EC001C59E900D38
:1042A00011249C01285C384F1901E114F104A1F19B
:1042B000D701D6968C91811104C0F90186A9882373
:1042C00059F1D70192964D905D906D907C909597A5
:1042D000C49EF001C59EF00D1124E85CF84FA301C7
:1042E000920166A177A180A591A50E94625E4B0113
:1042F0005C01A3019201F70166A177A180A591A5B8
:104300000E94625EAB01BC0195018401C7010E945D
:104310001730D701D6961C92D394B0E1DB1201C0BE
:10432000D12C7101AECFE114F10419F1F70182A093
:1043300093A0A4A0B5A0A50194016DEC7CEC8CE445
:104340009DE30E94625E2B013C01A5019401D7010F
:1043500096966D917D918D919C9199970E94625E48
:10436000AB01BC0193018201C7010E941730F70124
:1043700016AA80916F00826080936F00CE58DF4F45
:104380000FB6F894DEBF0FBECDBFDF91CF911F9166
:104390000F91FF90EF90DF90CF90BF90AF909F90E4
:1043A0008F907F906F905F904F903F902F900895E7
:1043B00090E0FC013197E231F10508F04EC088270A
:1043C000EE58FF4F8F4F0C947260809180008F7772
:1043D00003C0809180008F7D80938000089580913C
:1043E0008000877FF9CF84B58F7702C084B58F7D39
:1043F00084BD08958091B0008F7703C08091B00094
:104400008F7D8093B0000895809190008F7707C0D2
:10441000809190008F7D03C080919000877F809372
:10442000900008958091A0008F7707C08091A00030
:104430008F7D03C08091A000877F8093A0000895A6
:10444000809120018F7707C0809120018F7D03C06C
:1044500080912001877F8093200108953FB7F894D1
:104460008091B60C9091B70CA091B80CB091B90C9A
:1044700026B5A89B05C02F3F19F00196A11DB11DBF
:104480003FBFBA2FA92F982F8827820F911DA11DFA
:10449000B11DBC01CD0142E0660F771F881F991F37
:1044A0004A95D1F70895CF93DF93282F30E0F90193
:1044B000EA5AF74F8491F901E05FF74FD491F9017F
:1044C000E653F84FC491CC2389F0811171DFEC2FB2
:1044D000F0E0EE0FFF1FE055F84FA591B491EC917D
:1044E000ED2381E090E021F480E002C080E090E0E4
:1044F000DF91CF9108951F93CF93DF93282F30E062
:10450000F901EA5AF74F8491F901E05FF74FD4912E
:10451000F901E653F84FC491CC23C1F0162F811155
:1045200047DFEC2FF0E0EE0FFF1FEA56F84FA591A2
:10453000B4918FB7F894111105C09C91ED2FE095BF
:10454000E92302C0EC91ED2BEC938FBFDF91CF916B
:104550001F910895CF93DF9390E0FC01E05FF74F48
:104560002491FC01E653F84F8491882361F190E097
:10457000880F991FFC01E458F84FC591D491FC01B4
:10458000EA56F84FA591B491611109C09FB7F8940C
:104590008881209582238883EC912E230BC0623082
:1045A00061F49FB7F8943881822F809583238883A4
:1045B000EC912E2B2C939FBF06C08FB7F894E88107
:1045C0002E2B28838FBFDF91CF9108951F93CF9318
:1045D000DF93182FEB0161E0BDDF209711F460E05D
:1045E00004C0CF3FD10531F461E0812FDF91CF913D
:1045F0001F9181CFE12FF0E0EA5AF74FE4914E2F5F
:1046000050E0FA013197E231F10508F09DC08827AA
:10461000EC57FF4F8F4F0C94726084B5806884BD57
:10462000C7BD97C084B5806284BDC8BD92C080916B
:104630008000806880938000D0938900C0938800B8
:1046400088C080918000806280938000D0938B002E
:10465000C0938A007EC08091800088608093800033
:10466000D0938D00C0938C0074C08091B00080689E
:104670008093B000C093B3006CC08091B0008062A2
:104680008093B000C093B40064C0809190008068B3
:1046900080939000D0939900C09398005AC0809165
:1046A0009000806280939000D0939B00C0939A000A
:1046B00050C080919000886080939000D0939D00BE
:1046C000C0939C0046C08091A00080688093A000A9
:1046D0008091A0008F7B8093A000D093A900C0930D
:1046E000A80037C08091A00080628093A000D09382
:1046F000AB00C093AA002DC08091A0008860809379
:10470000A000D093AD00C093AC0023C080912001E5
:10471000806880932001D0932901C093280119C09B
:1047200080912001806280932001D0932B01C0935F
:104730002A010FC080912001886080932001D093CE
:104740002D01C0932C0105C0C038D1050CF04CCF11
:1047500046CFDF91CF911F9108958F929F92AF9294
:10476000BF92CF92DF92EF92FF926B017C0176DED7
:104770004B015C01C114D104E104F104E9F06EDEE7
:10478000DC01CB0188199909AA09BB09883E93402D
:10479000A105B10578F321E0C21AD108E108F108BA
:1047A00088EE880E83E0981EA11CB11CC114D104B0
:1047B000E104F10421F7DECFFF90EF90DF90CF907E
:1047C000BF90AF909F908F9008952FB7F89460910D
:1047D000B20C7091B30C8091B40C9091B50C2FBFBA
:1047E00008951F920F920FB60F9211242F933F93AB
:1047F0008F939F93AF93BF938091B20C9091B30C22
:10480000A091B40CB091B50C3091B10C23E0230F02
:104810002D3720F40196A11DB11D05C026E8230FF8
:104820000296A11DB11D2093B10C8093B20C909300
:10483000B30CA093B40CB093B50C8091B60C9091CE
:10484000B70CA091B80CB091B90C0196A11DB11D87
:104850008093B60C9093B70CA093B80CB093B90C9E
:10486000BF91AF919F918F913F912F910F900FBE6C
:104870000F901F90189510923607109235071092DE
:104880007F0610927E061092C9042C9810927F0623
:1048900010927E061092CA049FB7F894E2E0F1E00D
:1048A00080818F7D80839FBF08951F920F920FB6E6
:1048B0000F9211240BB60F922F933F934F935F9358
:1048C0006F937F938F939F93AF93BF93EF93FF93D8
:1048D0008091770281111CC08091C9048093B00C33
:1048E000882311F02C9A01C02C988091CA048093DF
:1048F000AF0C9FB7882329F0F89480910201806261
:1049000004C0F894809102018F7D809302019FBFC3
:104910009091B00C80917702981708F42C989091A0
:10492000AF0C80917702981740F49FB7F89480916C
:1049300002018F7D809302019FBF809177028F5F7C
:104940008F77809377028091760290E08B3091058B
:1049500008F08EC0FC018827EA56FF4F8F4F0C9459
:10496000726088E080937B0085E480937C00809176
:104970007A00806480937A0081E019C020917800E9
:10498000309179008091AB0C9091AC0CA091AD0C62
:10499000B091AE0C820F931FA11DB11D8093AB0C83
:1049A0009093AC0CA093AD0CB093AE0C82E08093CE
:1049B00076025EC088E080937B0086E480937C0072
:1049C00080917A00806480937A0083E0F0CF209118
:1049D0007800309179008091A70C9091A80CA0915B
:1049E000A90CB091AA0C820F931FA11DB11D809339
:1049F000A70C9093A80CA093A90CB093AA0C84E0E8
:104A0000D6CF88E080937B0087E480937C00809100
:104A10007A00806480937A0085E0C9CF2091780085
:104A2000309179008091A30C9091A40CA091A50CD9
:104A3000B091A60C820F931FA11DB11D8093A30CF2
:104A40009093A40CA093A50CB093A60C86E0AFCFD6
:104A500087E0ADCF88E0ABCF89E0A9CF1092760296
:104A60008091A20C8F5F8093A20C02C010927602FC
:104A70008091A20C803108F4AFC08091C8048111EC
:104A800010C08091AB0C9091AC0C9093A10C8093D2
:104A9000A00C8091A70C9091A80C90939F0C8093F0
:104AA0009E0C81E08093C8041092A20C1092AB0C73
:104AB0001092AC0C1092AD0C1092AE0C1092A30C94
:104AC0001092A40C1092A50C1092A60C10929A0CA5
:104AD00010929B0C10929C0C10929D0C1092A70CA3
:104AE0001092A80C1092A90C1092AA0C8091A00C04
:104AF0009091A10C8F3F9F43A4F1BDDE8091B2063F
:104B000081112DC0E5E7F7E08491882341F0909171
:104B1000C00095FFFCCF8093C6003196F5CF60E0D2
:104B200070E0CB010E94C8138091C00085FFFCCFCC
:104B30008AE08093C600EBE1F7E08491882341F09E
:104B40009091C00095FFFCCF8093C6003196F5CFC1
:104B50008091C00085FFFCCF8AE08093C6000E9450
:104B60006E368091A00C9091A10C18161906A4F134
:104B700082DE8091B20681112DC0E5E7F7E08491D5
:104B8000882341F09091C00095FFFCCF8093C60030
:104B90003196F5CF60E070E0CB010E94C8138091A0
:104BA000C00085FFFCCF8AE08093C600E8E4F7E010
:104BB0008491882341F09091C00095FFFCCF8093B1
:104BC000C6003196F5CF8091C00085FFFCCF8AE00A
:104BD0008093C6000E946E36FF91EF91BF91AF9116
:104BE0009F918F917F916F915F914F913F912F9105
:104BF0000F900BBE0F900FBE0F901F9018956091F5
:104C0000A00C7091A10C072E000C880B990B0E9430
:104C1000075A20E030E04AEF5EE30E94565620E05B
:104C200030E040E85DE30E94565620E030E0A90104
:104C30000E94865D60937A0670937B0680937C0663
:104C400090937D0610927606109277061092780661
:104C5000109279068FB7F8941092C8048FBF089508
:104C60002F923F924F925F926F927F928F929F927C
:104C7000AF92BF92CF92DF92EF92FF920F931F936A
:104C8000CF93DF93CDB7DEB728970FB6F894DEBF8A
:104C90000FBECDBF8091C804882309F47BC1AFDF6C
:104CA00080907A0690907B06A0907C06B0907D065E
:104CB0000091350710913607B801012E000C880BC2
:104CC000990B0E94075AA50194010E94855D6B0112
:104CD0007C016093960C7093970C8093980C909342
:104CE000990C20E030E040EA51E40E94B15F1816D0
:104CF00024F481E08093950CF7C020E030E040EA96
:104D000051ECC701B6010E94015A87FD02C0012B78
:104D100021F481E08093950C0CC18091950C88233F
:104D200051F01092910C1092920C1092930C1092E0
:104D3000940C1092950C2091390230913A024091D6
:104D40003B0250913C02C701B6010E94565669834E
:104D50007A838B839C8360938D0C70938E0C8093ED
:104D60008F0C9093900C2091910C3091920C40916B
:104D7000930C5091940CC701B6010E94865D2B01E3
:104D80003C0120907D0C30907E0C10917F0C0091A6
:104D9000800C9101412F502F0E94015A87FD14C0B1
:104DA0002090790C30907A0C10917B0C00917C0C47
:104DB0009101412F502FB201C3010E94B15F18161B
:104DC0001CF01201162D072DC101A12FB02F8093C9
:104DD000910C9093920CA093930CB093940C20910F
:104DE0003502309136024091370250913802B101BC
:104DF000812F902F0E9456566D837E838F839887D4
:104E00006093890C70938A0C80938B0C90938C0C1C
:104E10002091850C3091860C4091870C5091880C24
:104E2000C501B4010E94855D2091310230913202AA
:104E300040913302509134020E94565620ED3CECD2
:104E40004CE45DE30E9456562B013C0123E333E31F
:104E500043E75FE36091810C7091820C8091830C39
:104E60009091840C0E9456569B01AC01C301B20183
:104E70000E94865D2B013C016093810C7093820C33
:104E80008093830C9093840C2D813E814F815885B3
:104E900069817A818B819C810E94865DA301920148
:104EA0000E94855D2B013C0120E030E04FE753E498
:104EB0000E94B15F20E030E0A9011816E4F4C701B8
:104EC000B6010E94B15F18167CF4A7019601B101EA
:104ED000812F902F0E94855D6093910C7093920CAE
:104EE0008093930C9093940C412C512C9FE7692E46
:104EF00093E4792E21C0C301B2010E94015A87FFB9
:104F00001BC020E030E0A901C701B6010E94015A90
:104F100087FF0FC0A7019601B101812F902F0E943A
:104F2000855D6093910C7093920C8093930C909399
:104F3000940C412C512C32018092850C9092860C5D
:104F4000A092870CB092880C20E030E0A901C50146
:104F5000B4010E94B15F1816DCF460917402709184
:104F60007502072E000C880B990B0E94075A9B01B3
:104F7000AC01C501B4010E94015A87FF09C0C301F9
:104F8000B2010E94CA5E759567956093C90402C01C
:104F90001092C90428960FB6F894DEBF0FBECDBF9D
:104FA000DF91CF911F910F91FF90EF90DF90CF9005
:104FB000BF90AF909F908F907F906F905F904F9039
:104FC0003F902F9008952091350230913602409104
:104FD00037025091380260E070E08FE793E40E945E
:104FE000625E6093790C70937A0C80937B0C909343
:104FF0007C0C20912502309126024091270250918D
:10500000280260E070E08FE793E40E94625E6093A4
:10501000750C7093760C8093770C9093780C0895B0
:1050200011D05F9AEAE0FCE010828A9A11829FB761
:10503000F894A8E0B1E08C9181608C939FBF1282BC
:10504000129A089590910E0C80910D0C981721F0F2
:1050500007DE0E941315F6CF08951F920F920FB628
:105060000F9211240BB60F920F931F932F933F9320
:105070004F935F936F937F938F939F93AF93BF9360
:10508000CF93DF93EF93FF93E091680DF091690D5B
:10509000309709F080C190910E0C80910D0C9817FB
:1050A00069F0E0910D0C2DE4E29FF0011124E85C21
:1050B000F84FDF01A45BBF4F81E08C93F093690D43
:1050C000E093680D309709F460C1DF01A45BBF4F26
:1050D00021E02C931092640D1092650D1092660DD4
:1050E0001092670D80AD91AD81343CE9930728F4AF
:1050F00081326EE4960748F002C080E49CE9969500
:1051000087959695879524E007C0813177E29707C8
:1051100030F09695879522E02093630D07C0209389
:10512000630D8032910510F480E290E08097811544
:1051300028E09207E8F0E92FFF27EE0FFF1FEE0FA0
:10514000FF1F9F012456334FF901329665917491E8
:10515000AA27879FA001869F410D5A1F06944A1FC8
:105160005A1F1124F90125913491241B350B20C0BD
:105170009C01369527952C7F2456374FF901459190
:105180005491F9013296A591B491BC0167707727CB
:10519000A69F9001A79F300DB69F300D112413E0FC
:1051A000369527951A95E1F7BA01621B730B9B019F
:1051B0002436310580F4E4EDF3E02191222339F027
:1051C0003091C00035FFFCCF2093C600F6CF0E947F
:1051D0005E1424E630E03093620D2093610D8091DF
:1051E000630D082E000C990B9093600D80935F0D5A
:1051F000E091680DF091690D84AD95AD90935E0DD1
:1052000080935D0D81347CE9970728F481322EE488
:10521000920748F002C080E49CE9969587959695A0
:10522000879524E007C0813137E2930730F09695E7
:10523000879522E02093630D08C021E02093630D41
:105240008032910510F480E290E08097811568E04B
:105250009607E8F0E92FFF27EE0FFF1FEE0FFF1F65
:105260009F012456334FF901329665917491AA2714
:10527000879FA001869F410D5A1F06944A1F5A1FFF
:105280001124F90125913491241B350B20C09C0178
:10529000369527952C7F2456374FF9014591549127
:1052A000F9013296A591B491BC0167707727A69F4A
:1052B0009001A79F300DB69F300D112473E03695F5
:1052C00027957A95E1F7BA01621B730B9B0124368F
:1052D000310580F4E4EDF3E02191222339F030919F
:1052E000C00035FFFCCF2093C600F6CF0E945E14AD
:1052F00024E630E0C901A0E0B0E08093590D90931E
:105300005A0DA0935B0DB0935C0D309389002093F0
:105310008800E091680DF091690D80899189A289DA
:10532000B389B695A79597958795B095A0959095D3
:1053300081959F4FAF4FBF4F8093550D9093560D62
:10534000A093570DB093580D8093510D9093520D2B
:10535000A093530DB093540D80934D0D90934E0D2B
:10536000A0934F0DB093500D8093490D90934A0D2B
:10537000A0934B0DB0934C0D1092450D1092460D1D
:105380001092470D1092480D06C080ED97E0909363
:10539000890080938800E091680DF091690D309745
:1053A00009F477C580A18093440D80FF03C0899ADA
:1053B0008FEF02C0899881E0809378028091440D3C
:1053C00081FF03C08F9A8FEF02C08F9881E0809396
:1053D00079022091440D9091000220FF3CC0992356
:1053E00009F472C0659902C080E032C08091430D1B
:1053F000882309F44CC5E091680DF091690D408156
:1054000051816281738114161506160617060CF079
:105410003EC54091190C50911A0C60911B0C709173
:105420001C0C4093B3065093B4066093B50670937A
:10543000B60681E08093C1064089518962897389EB
:105440004093450D5093460D6093470D7093480D62
:105450008093430D39C09923B9F18CB131E0829525
:105460008170832779F14091420D442359F1E091F5
:10547000680DF091690D408151816281738114162C
:10548000150616061706F4F44091190C50911A0CE3
:1054900060911B0C70911C0C4093B3065093B406A2
:1054A0006093B5067093B6063093C1064089518962
:1054B000628973894093450D5093460D6093470D63
:1054C0007093480D8093420D21FF3DC0992309F44C
:1054D00076C08091030181FD02C080E031C08091DF
:1054E000410D882361F1E091680DF091690D84818F
:1054F0009581A681B781181619061A061B06FCF4B9
:1055000080911D0C90911E0CA0911F0CB091200C4D
:105510008093B7069093B806A093B906B093BA06E5
:1055200081E08093C00680899189A289B3898093A4
:10553000450D9093460DA093470DB093480D81E023
:105540008093410D3CC09923D1F18091030181707A
:1055500091E08927382F3170882379F18091400DAF
:10556000882359F1E091680DF091690D44815581CE
:10557000668177811416150616061706F4F4409115
:105580001D0C50911E0C60911F0C7091200C4093CB
:10559000B7065093B8066093B9067093BA06909315
:1055A000C00680899189A289B3898093450D909323
:1055B000460DA093470DB093480D3093400D9FB713
:1055C00022FF48C0F89480910B018D7F80930B01DE
:1055D0009FBF8FEF80937A0280910002882309F4A5
:1055E0007EC089B191E083FB882780F9892779F112
:1055F00020913F0D222359F1E091680DF091690D42
:1056000040855185628573851416150616061706A2
:10561000F4F44091210C5091220C6091230C709174
:10562000240C4093BB065093BC066093BD06709358
:10563000BE069093BF064089518962897389409361
:10564000450D5093460D6093470D7093480D809320
:105650003F0D45C0F89480910B01826080930B014F
:105660009FBF91E090937A02809100028823B9F164
:1056700089B182FB882780F9892779F120913E0D35
:10568000222359F1E091680DF091690D4085518513
:10569000628573851416150616061706F4F44091F4
:1056A000210C5091220C6091230C7091240C40939A
:1056B000BB065093BC066093BD067093BE069093E4
:1056C000BF0640895189628973894093450D509383
:1056D000460D6093470D7093480D80933E0D809169
:1056E000440D83FF06C0169A8FEF80937B0220E063
:1056F000A7C1169881E0F9CF8091C00087FDA6C1AF
:10570000E091680DF091690D4091550D5091560D45
:105710006091570D7091580D80819181A281B38164
:10572000840F951FA61FB71F8093550D9093560D9C
:10573000A093570DB093580D181619061A061B069C
:10574000CCF5889AE091680DF091690D8091550D26
:105750009091560DA091570DB091580D40895189E7
:1057600062897389841B950BA60BB70B8093550D2B
:105770009093560DA093570DB093580D80917802D9
:105780004091190C50911A0C60911B0C70911C0CDB
:10579000082E000C990BAA0BBB0B840F951FA61F9C
:1057A000B71F8093190C90931A0CA0931B0CB09305
:1057B0001C0C8898E091680DF091690D4091510D95
:1057C0005091520D6091530D7091540D84819581CB
:1057D000A681B781840F951FA61FB71F8093510D17
:1057E0009093520DA093530DB093540D18161906B3
:1057F0001A061B06CCF58E9AE091680DF091690DA2
:105800008091510D9091520DA091530DB091540D76
:105810004089518962897389841B950BA60BB70B4C
:105820008093510D9093520DA093530DB093540D4E
:105830008091790240911D0C50911E0C60911F0CBB
:105840007091200C082E000C990BAA0BBB0B840F37
:10585000951FA61FB71F80931D0C90931E0CA0933D
:105860001F0CB093200C8E98E091680DF091690D9B
:1058700040914D0D50914E0D60914F0D7091500D16
:1058800080859185A285B385840F951FA61FB71FBC
:1058900080934D0D90934E0DA0934F0DB093500DEE
:1058A000181619061A061B060CF047C09FB7F89485
:1058B00080910B01886080930B019FBFE091680D80
:1058C000F091690D80914D0D90914E0DA0914F0D6D
:1058D000B091500D4089518962897389841B950B61
:1058E000A60BB70B80934D0D90934E0DA0934F0DCB
:1058F000B093500D80917A024091210C5091220C6E
:105900006091230C7091240C082E000C990BAA0BAB
:10591000BB0B840F951FA61FB71F8093210C90937C
:10592000220CA093230CB093240C9FB7F894809181
:105930000B01877F80930B019FBFE091680DF09171
:10594000690D4091490D50914A0D60914B0D709138
:105950004C0D84859585A685B785840F951FA61F58
:10596000B71F8093490D90934A0DA0934B0DB093B0
:105970004C0D181619061A061B06CCF5149AE09160
:10598000680DF091690D8091490D90914A0DA0919B
:105990004B0DB0914C0D4089518962897389841BEC
:1059A000950BA60BB70B8093490D90934A0DA093CE
:1059B0004B0DB0934C0D80917B024091250C509182
:1059C000260C6091270C7091280C082E000C990B66
:1059D000AA0BBB0B840F951FA61FB71F8093250C26
:1059E0009093260CA093270CB093280C14988091C8
:1059F000450D9091460DA091470DB091480D01962F
:105A0000A11DB11D8093450D9093460DA093470DA8
:105A1000B093480D4091450D5091460D6091470D52
:105A20007091480DE091680DF091690D8089918920
:105A3000A289B389481759076A077B0710F52F5FBA
:105A40008091630D28170CF457CE1BC03091C6000F
:105A500040913A0D50913B0DCA0101968F779927DD
:105A600060913C0D70913D0D8617970709F448CE63
:105A7000FA01E654F34F308390933B0D80933A0D37
:105A80003FCE4091450D5091460D6091470D70916C
:105A9000480DE091680DF091690D84899589A6897A
:105AA000B78984179507A607B70708F4D6C04091B1
:105AB000590D50915A0D60915B0D70915C0D048DE4
:105AC000158D268D378DAA27419FB12D529FC0017C
:105AD000629F900D619F800D911D429FB00D811DB1
